:100000000C942A010C9447010C9447010C9447016D
:100010000C9447010C9447010C9447010C94470140
:100020000C9447010C9447010C94E91A0C94BD1BE5
:100030000C94E0150C9447010C9447010C94470173
:100040000C9447010C9447010C9447010C94470110
:100050000C9447010C9467160C9447010C944701CB
:100060000C9447010C9447010C9447010C944701F0
:100070000C9447010C9447010C9447010C944701E0
:100080000C9447010C9447010C9447010C944701D0
:100090000C9447010C9447010C9447010C944701C0
:1000A0000C9447010C9447010C94470100002B006D
:1000B000520029000000500051004F00E3001B00D7
:1000C00006001900E0001D001C00E2000000010015
:1000D0000100010000000100010001000100010019
:1000E0000100010001000100010001000000010009
:1000F00001000100000001000100010001000100F9
:1001000001000100010001000100010000000100E8
:1001100001000100000001000100010001000100D8
:100120000100010001000100010001000A03660056
:1001300064003000300000000E03540073007500AE
:1001400069006800610000000403090409023B0023
:10015000020100A0FA0904000001030101000921C5
:100160001101000122400007058103080001090474
:1001700001000103000000092111010001227B00A0
:10018000070582032000011201000200000008217F
:1001900001080001000102000105010902A1018519
:1001A000020901A100050919012908150025019579
:1001B00008750181020501093009311581257F95F6
:1001C000027508810609381581257F95017508811A
:1001D00006050C0A38021581257F950175088106F0
:1001E000C0C005010980A101850319012AB70015C6
:1001F0000126B700950175108100C0050C0901A109
:1002000001850419012AA002150126A00295017595
:10021000108100C005010906A101050719E029E7C1
:100220001500250195087501810295017508810168
:100230000507190029FF150026FF0095067508819E
:1002400000050819012905950575019102950175AB
:10025000039101C011241FBECFEFDAE0DEBFCDBF96
:1002600011E0A0E0B1E0E0E6FCE302C005900D92F1
:10027000A238B107D9F722E0A2E8B1E001C01D928F
:10028000A533B207E1F70E9432100C94181E0C94AB
:10029000000081E0089581E008950E944B010895D7
:1002A00008950E9450010895A5E0B0E0EAE5F1E06C
:1002B0000C948D1D49835A833091850189819A81DF
:1002C000311119C0662399F0222389F00E94630737
:1002D000182F682F89819A810E94400769817A814D
:1002E000812F0E94D30D2596E3E00C94A91D0E9456
:1002F0005107182FF3CF0E94630769817A81F1CFEC
:10030000FC01262F408151816281738184810E948A
:100310005401089581E00895CF93DF93EC0160E0EC
:100320000E948001BE010E945101DF91CF9108958A
:100330000E94F50E08950E94F90E089508950E94F6
:100340008F050E949E012FEF84E39CE021508040A6
:100350009040E1F700C0000008950E949F010E94B4
:100360008B1608950E949F010E949C1608950F937A
:100370001F93CF93DF938C0161E00E948001EC0119
:10038000B8010E944D01811106C080E0DF91CF913C
:100390001F910F910895B801CE010E948E148823F9
:1003A000A1F3B801CE010E94C312882371F3B801F2
:1003B000CE010E940014882341F3F8018281882332
:1003C00061F0CB35FDE5DF0701F158F4C115ECE52F
:1003D000DE0791F0CF3DDC4591F0C8010E94490154
:1003E000D5CFCD358DE5D80769F090F0C83ADD4519
:1003F000A1F70E94B201C9CF0E94AD01C6CF0E94F1
:10040000220CF7CF0E94630BE8CF0E946D0BE5CF63
:100410000E94710BE2CF0E94BD150E942802089530
:100420000E942C020E94C215089508950E94150290
:10043000089581E008950E94190208950895CF93C8
:10044000C82F0E9416028C2F0E941B02CF91089584
:1004500080E00E941F0208950E94EA140E941F0279
:1004600008950E94EA1490918401981721F08093D6
:1004700084010E941F020895ABE0B0E0E2E4F2E0E4
:100480000C948E1D4F83588769877A878B876111FB
:100490000E94AE0A1E821D8285E0FE013796DE01B3
:1004A000119601900D928A95E1F78C819D81892B9F
:1004B00061F449815A816B817C818D819E810E948A
:1004C000D7092B96E2E00C94AA1D89819A81892391
:1004D0008F3F79F3CE0101960E948A018111E9CF05
:1004E000F0CFFC01808191810E949D070895CF93F8
:1004F000C82F8823B9F08CEF8C0F813AA8F46C2FA9
:1005000080910001909101010E944E15882329F0ED
:100510008C2F0E946E0A0E94CF0A8C2F0E94660ABE
:100520000E94CF0ACF91089580E28C0F883048F462
:10053000C77081E001C0880FCA95EAF70E94910A4E
:10054000EFCFEBE5EC0FE33040F4F0E0EB5BFE4F78
:10055000808190E00E941015E5CFE8E5EC0FE731CF
:1005600050F4F0E0EE0FFF1FE95EFE4F80819181B5
:100570000E942615D7CFCD3EA8F28C2F0E94B61030
:100580000E948911CFCF882379F19CEF980F913A7F
:1005900028F40E946E0A0E94CF0A089590E2980FF4
:1005A000983050F4877091E001C0990F8A95EAF76E
:1005B000892F0E94970AEFCF9BE5980F933028F47C
:1005C00090E080E00E941015089598E5980F97310B
:1005D00028F490E080E00E94261508958D3E20F0DA
:1005E0000E9410110E94891108951F93CF93DF93E9
:1005F000182FEB010E947702209739F4812F0E9477
:10060000C302DF91CF911F9108958FE99FE0019779
:10061000F1F700C000002197EFCF70E060E0893370
:1006200011F460E570E00E94F5020895882321F03E
:100630000E94910A0E94CF0A0895882321F00E9407
:10064000970A0E94CF0A0895B0E0A0E0EAE2F3E042
:100650000C94871D6C01D62FC72FFC011281F580E9
:10066000F2949FE0F9220E94870AE82E8823B9F0CD
:10067000E12E1123A1F08C2F807F803421F080E2C5
:100680008D0F8830D0F080911B0282FF16C082E06F
:100690000E94320B0E94870A91E0E82EE926BC2EC8
:1006A000B2948FE0B822FBE0FB1508F468C0EB2D94
:1006B000F0E0E65EF14E0C94781DE12CF0CF0C2FAB
:1006C0000F70C07F11F00295007F112399F0002375
:1006D00059F080E28D0F883010F0D11107C0802FC3
:1006E0000E94910A0E94CF0A8D2F41C0802F0E9444
:1006F000A10AF8CF8D2F0E94C302002309F43FC046
:1007000080E28D0F883010F0D11104C0802F0E943C
:10071000970A03C0802F0E94A70A0E94CF0A2FC009
:100720000C2F0F70C07FC03211F00295007FDD23C7
:1007300081F0D13009F463C0112309F46DC0FF20AA
:1007400009F463C0F601858180FFCECF8F70858369
:100750005CC080911B0282FD33C0112359F000233D
:1007600029F0802F0E94910A0E94CF0A80E00E9407
:10077000770205C080E00E94C3020111C7CFEB2DB4
:10078000E850FF0B349720F40E94EA140E941F02E5
:10079000EE2089F00E94830A80FD0DC0F6011282CE
:1007A0000E947D0A0E944806C6010E944F050E94D1
:1007B0007D0A0E946A06CDB7DEB7E9E00C94A31D5E
:1007C000112389F0F11006C00E94B10A802B0E940B
:1007D0001603D5CF21E0F212F7CF0E94B10A802B89
:1007E0000E94B80ACCCFF11006C00E94C50A802F23
:1007F0000E941D03C4CF31E0F31609F2F6CF112396
:1008000031F085E08F1508F4BACF802FE0CF94E067
:100810009F1508F4B4CFEBCFFF2049F3D93349F447
:10082000FFEF27EE33E0F15020403040E1F700C009
:1008300000008D2F0E94C302A2CF8C2F8695869533
:10084000837069F0813009F09ACF8D2F9C2F9370BF
:10085000111102C090E080E00E94261590CF8D2FEC
:100860009C2F9370111102C090E080E00E9410153F
:1008700086CF8D2F112329F00E94B6100E94891176
:100880007ECF0E941011FACF8C2F837009F041C0E7
:10089000111175CF4D2F429546954770440F440F67
:1008A0000D2F0F7010E030E020E0042E04C0000F88
:1008B000111F221F331F0A94D2F760E070E0CB01B2
:1008C000D4FF0FC06FE070E080E090E004C0660FDE
:1008D000771F881F991F4A95D2F76095709580956C
:1008E0009095C695C695C370602B712B822B932B68
:1008F000C23049F058F4C13019F00E94F3053FCFDF
:100900000E94E0053CCF0E94060639CF0E94DD051B
:1009100036CF8695112311F08C2F8170882309F42E
:100920002ECF4D2F429546954770440F440F0D2F03
:100930000F7010E030E020E0042E04C0000F111F03
:10094000221F331F0A94D2F760E070E0CB01D4FF7E
:100950000FC06FE070E080E090E004C0660F771F8A
:10096000881F991F4A95D2F760957095809590954C
:10097000C695C695C370602B712B822B932BC2300A
:1009800049F058F4C13019F00E94C306F8CE0E9415
:10099000B006F5CE0E94D606F2CE0E941F06EFCE1C
:1009A000CF70112329F08C2F0E9448068D2F0FCF76
:1009B0008D2F0E941D038C2F0E946A06E0CED23F2D
:1009C00051F160F4D03FB9F0D13F81F0112309F427
:1009D00049C0F11089CE8C2F8F7121C0D33F11F106
:1009E000D43FA1F780911B0282FD26C08C2F8F710E
:1009F000112311F314C0112349F084E08F1508F47A
:100A0000BECE8C2F8F710E948E06B9CE95E09F15B9
:100A100008F4B5CEF6CF8C2F8F711111CDCF0E9477
:100A20004806ADCE112329F08C2F8F710E9432061B
:100A3000A6CE0E942C06A3CE112349F0CF718C2F95
:100A40000E94480663E08C2F0E94140B98CE81E030
:100A50000E94320BE1E0EF1508F091CE82E00E9497
:100A6000320B8DCEF110DACE8C2F8F71A5CF0F9374
:100A70001F93CF93DF93EC01688179818A810E9473
:100A8000A8078C010E94E9060E94DC05B801CE018E
:100A90000E942403DF91CF911F910F910895CF936E
:100AA000DF93EC018B819C81892B29F088819981CE
:100AB00089238F3F51F4DF91CF910895CE010E9499
:100AC0003705CE010E948C01F6CFCE010E94B701FE
:100AD0008111F4CF0E94870A882369F38A818823D1
:100AE00051F380911B0282FFE6CF82E00E94320B1D
:100AF000E2CF90E080E00E94101590E080E00E943C
:100B000026150E94AE0A0E94CF0A0E94A5110E94DB
:100B1000891108950E94760A0E94790508950E941D
:100B20009E0A0E948A05089592959F70963091F0D2
:100B300058F4925F9F70923058F4803F19F030F46F
:100B4000883E30F481E008959A5FF4CF843FD1F37A
:100B500080E00895883EB0F3813FD1F7F3CFFC01E8
:100B6000808191810E949D070E9494050895A5E0CF
:100B7000B0E0EDEBF5E00C948E1D2596E2E00C94D0
:100B8000AA1DA6E0B0E0E7ECF5E00C948E1D2696D9
:100B9000E2E00C94AA1D08950E94CB0508950E94DE
:100BA000CC05609394017093950180939601909386
:100BB00097010E947905089508950E94CF05089530
:100BC0000F931F930091940110919501209196012C
:100BD00030919701602B712B822B932B0E94CF05B4
:100BE0001F910F9108950F931F93009194011091FD
:100BF0009501209196013091970160237123822302
:100C000093230E94CF051F910F9108950F931F9377
:100C100000919401109195012091960130919701D6
:100C200060277127822793270E94CF051F910F917C
:100C300008950E94CB0508950E94190608950E9408
:100C40001C066093900170939101809392019093A0
:100C500093010E947905089560E070E0CB010E9445
:100C60001F0608950F931F9341E050E060E070E08D
:100C70008A019B0104C0000F111F221F331F8A9598
:100C8000D2F7C901B8010E941F061F910F91089564
:100C90000F931F9341E050E060E070E004C0440F08
:100CA000551F661F771F8A95D2F78091900190910A
:100CB0009101A0919201B09193018A019B01082BAF
:100CC000192B2A2B3B2BC901B8010E941F061F912B
:100CD0000F9108950F931F9341E050E060E070E0A2
:100CE00004C0440F551F661F771F8A95D2F7CB01AA
:100CF000BA01609570958095909500919001109142
:100D000091012091920130919301602371238223FC
:100D100093230E941F061F910F9108950F931F9315
:100D200041E050E060E070E004C0440F551F661FD2
:100D3000771F8A95D2F78091900190919101A091AF
:100D40009201B09193018A019B01082719272A2754
:100D50003B27C901B8010E941F061F910F910895FA
:100D60000F931F9300919001109191012091920196
:100D700030919301602B712B822B932B0E941F06C5
:100D80001F910F9108950F931F930091900110915F
:100D9000910120919201309193016023712382236C
:100DA00093230E941F061F910F9108950F931F9385
:100DB0000091900110919101209192013091930145
:100DC00060277127822793270E941F061F910F918A
:100DD00008950895262F277091E001C0990F2A9554
:100DE000EAF723E0769567952A95E1F725E0269FB7
:100DF000F001279FF00D1124E40FF51F50E040E0B3
:100E0000682F70E08191DF0111979B01042E02C0D1
:100E1000369527950A94E2F72170219528272923F2
:100E200028272C934F5F5F4F4530510559F70895A0
:100E3000A82FA77023E0969587952A95E1F725E0DE
:100E4000289FF001299FF00D1124E60FF71F50E0B5
:100E500040E080E0219130E00A2E02C036952795CF
:100E60000A94E2F721703327042E01C0220F0A945E
:100E7000EAF7822B4F5F5F4F4530510559F70895D0
:100E8000262F943068F4843058F434E0939FB001F6
:100E90001124680F711D46E851E0822F0E94EA0676
:100EA0000895943070F4843060F444E0949F90018D
:100EB000112466E871E0820F932F911D0E9418079C
:100EC000089580E00895B0E0A0E0E9E6F7E00C9432
:100ED000871D8C01C0909001D0909101E09092010B
:100EE000F09093018091940190919501A0919601C9
:100EF000B0919701C82AD92AEA2AFB2ACFE1D0E08B
:100F0000BC2ED701C6010C2E04C0B695A7959795A7
:100F100087950A94D2F780FD09C0219788F7B12CF4
:100F20008B2DCDB7DEB7E9E00C94A31DB8018C2F53
:100F30000E94ED0D019789F3F3CFCF93DF93EC017E
:100F40000E946307BE010E94ED0DDF91CF910895CD
:100F50001F93CF93DF93EB0190918501992339F093
:100F6000CB010E949D07DF91CF911F9108958823A7
:100F700069F0CB010E946307182F682FCE010E94F1
:100F80004007BE01812F0E94ED0DEDCFCB010E94E5
:100F90005107182FF6CF1F93CF93DF93C09198017D
:100FA00016E0809199018C1304C0DF91CF911F91BD
:100FB0000895D0E01C9FF0011D9FF00D1124E6560E
:100FC000FE4F4081518162817381848195810E94AD
:100FD000C1052196C770E5CF4091CA015091CB0160
:100FE0006091CC017091CD018091CE019091CF01A3
:100FF0000E94C10508951F93CF93DF938091CF0185
:10100000807F09F049C08091CC01882309F444C055
:1010100080919801C09199016091CA017091CB01B2
:10102000A091CD01B091CE01D62FD72316E0C817DD
:1010300099F190E0109711F0DF3F19F40196877055
:10104000F6CF189F9001199F300D1124F901E65633
:10105000FE4F41814713F2CF40814613EFCF4281CB
:101060004111ECCF438154814A1B5B0B483C510535
:1010700028F78091CF018F7080618093CF01F901B3
:10108000E156FE4F80818F70806180838AEC91E011
:101090000E944F050E94CB07DF91CF911F910895C9
:1010A000A1E1B0E0E6E5F8E00C94861D8C0185E056
:1010B000F801DE011D9601900D928A95E1F7F80185
:1010C000E2808AECC82E81E0D82E6091CD0170912B
:1010D000CE016115710509F44EC19091CA012091AC
:1010E000CB01892F82238F3F09F445C14081518173
:1010F000A380B480F090CC01F501E61BF70BFF2034
:1011000009F4EAC08091CF01382F307FE83CF10527
:1011100008F0A3C031116DC0FE2C251316C0941326
:1011200014C0E11012C08F7080618093CF010E94C3
:10113000EC07C6010E944F058091CF01F80185831D
:101140008F2D6196EAE00C94A21DA114B10429F040
:10115000842F85238F3F09F027C180E0F82FF1709D
:10116000DF2E80FF3CC0809198012091990136E0EC
:10117000821315C04D875E878D859E850E949D07D1
:10118000292F22952F702230F0F0243018F59F700F
:10119000F1F0F8019581907FD1F4D12C1EC090E040
:1011A000389FF001399FF00D1124E656FE4F618102
:1011B000651306C06081641303C06281E6120FC02C
:1011C00001968770D5CF9F7011F0882331F3805E30
:1011D000883018F3C8010E944F05FD2CB1CFEE20D6
:1011E00009F4AECF8091CF0181608093CF01F12CC3
:1011F000A7CF251306C0941304C0F801EE2009F40C
:1012000087C0C8010E94AF05882319F1EE2009F1BB
:101210008091CF01803270F02091CA013091CB01D2
:1012200038872F831986BB86AA868C87CE010796BE
:101230000E944F0586E0F801AAECB1E001900D9202
:101240008A95E1F70E94FB070E94EC07FF24F394C4
:1012500077CFC8010E944F05F9CF311113C07A2D05
:10126000B98AA88A6E2D89890E94B7058AEC91E017
:101270000E944F0586E0F60111928A95E9F70E94D7
:10128000EC07B5CF25130FC094130DC0E1100BC0B0
:10129000F8018583C8010E944F0586E0F60111928E
:1012A0008A95E9F74DCFC8010E94AF05882389F2DE
:1012B000EE2079F28091CF01803208F4BBCF2091EB
:1012C000CA013091CB013A8329831B82BD82AC8253
:1012D0008E83CE010196ACCFE83CF10508F03EC00C
:1012E000FE2CEE2009F4B5CF25132AC0941328C094
:1012F0008091CF0180FD1BC0982F907FC1F0F80135
:101300008583903F31F0982F907F905F8F70892B6D
:101310008583C8010E944F0586E0F801AAECB1E080
:1013200001900D928A95E1F70E94EC0709CF86E0C3
:10133000F801AAECB1E001900D928A95E1F700CF97
:10134000C8010E94AF05811175CF8091CF018160E6
:101350008093CF01C8010E944F05F2CE7A2DB98A41
:10136000A88A6E2D89890E94B70586E0F601119240
:101370008A95E9F7D9CFEE2009F46BCFC8010E9416
:10138000AF05F82E882309F464CF86E0F801AAECB3
:10139000B1E001900D928A95E1F78AEC91E00E940C
:1013A00071020E94FB07C0CF81E08E25D7CEACE052
:1013B000B0E0EDEDF9E00C948D1D4F8358876987FF
:1013C0007A878B879C87CE0107960E9450088823D6
:1013D00069F08A859B85892B39F04F815885842F48
:1013E00085238F3F09F06BC016E05FC086E0FE01E9
:1013F0003796DE01119601900D928A95E1F78A8564
:101400009B85892B89F38F81988589238F3F61F391
:101410002091990130E0C901019687709927409188
:1014200098014817190671F40E948F0510929901CE
:101430001092980186E0EAECF1E0DF011D928A95B6
:10144000E9F7D2CF96E0929FD001939FB00D11247F
:10145000A656BE4FFE01319601900D929A95E1F786
:10146000809399010E94CB07BFCF819FC0011124B7
:1014700086569E4F0E9450088823E9F0E09198011B
:101480001E9FF0011124E656FE4F4081518162817A
:101490007381848195810E94C1058091980190E0BB
:1014A0000196877099278093980180919801909177
:1014B00099018913DACF2C96E3E00C94A91D698574
:1014C0007A858B859C850E94C1058ECF682F80917F
:1014D0000001909101010E9484150895682F809168
:1014E0000001909101010E948715089580910001EB
:1014F000909101010E948A1508958091D8018595E7
:101500008595859508958091D8018770089590916B
:10151000D801977081E009F480E008958091E3019B
:1015200008959091E301892B8093E30108958095BC
:101530009091E30198239093E30108951092E301C1
:1015400008959091E201892B8093E201089580959E
:101550009091E20198239093E20108951092E201A4
:1015600008958091D901089508950E94B40A0895BC
:1015700090911B0292FF08C09091D901981721F019
:101580008093D9010E94B50A08958091D9018823DA
:1015900029F01092D90180E00E94B50A0895CF93F6
:1015A000DF93E0910001F09101018091E3018083DC
:1015B000E0910001F091010180819091E201892B7D
:1015C00080839091D901992381F0E0910001F091FD
:1015D00001018081892B808380910001909101011C
:1015E0000E943C1581110E94C50AC0910001D09152
:1015F000010148E050E060ED71E0CE010E94C91D9C
:10160000892B59F088E0FE01A0EDB1E001900D9228
:101610008A95E1F7CE010E94F714DF91CF910895EA
:1016200008950E94100B089590911B0292FF11C023
:1016300098E0899F90011124622B6093D8010E9449
:1016400048068091D8018595859585950E94110B56
:1016500008950E94480608951092D80180E00E94E3
:10166000110B08959091D801809589238093D8011A
:10167000282F277091F4282F082E000C330B921777
:10168000130659F090911B0292FF07C0859585952E
:1016900085950E946A060E942C0B089590911B026A
:1016A00092FB222720F9281769F080FB92F990938A
:1016B0001B0280911A0290911B020E94980B82E0FB
:1016C0000E94320B089580911B0282FB882780F9CB
:1016D00091E089270E944E0B089581E00E944E0BF5
:1016E000089580E00E944E0B089590E080E00E94F3
:1016F000DE1D21E0883E9E4F09F020E0822F0895F4
:1017000082E090E00E94D61D089583E090E00E9460
:10171000D61D0895CF9384E090E00E94D61DC82F77
:1017200082E290E00E94D61D982F8C2FCF910895D1
:10173000CF93C92F682F84E090E00E94E41D6C2FA6
:1017400082E290E00E94E41DCF910895AB01BC01BC
:101750008FE090E00E94F61D0895AB01BC0183E18B
:1017600090E00E94F61D089560E070E0CB010E94B9
:10177000AD0B089560E070E0CB010E94A60B0E94C3
:10178000B40B089568EE7EEF90E080E00E94021EA8
:1017900060E082E090E00E94E41D60E083E090E081
:1017A0000E94E41D109294011092950110929601EE
:1017B0001092970160E084E090E00E94E41D64E0F4
:1017C00082E290E00E94E41D60E085E090E00E94EB
:1017D000E41D60E086E090E00E94E41D6FEF87E08A
:1017E00090E00E94E41D40E050E0BA0188E090E003
:1017F0000E94F61D60E08DE090E00E94E41D40E054
:1018000050E0BA0188E190E00E94F61D60E087E1B7
:1018100090E00E94E41D40E050E0BA018CE190E0CD
:101820000E94F61D70E060E080E290E00E94021EDF
:1018300040E050E0BA0188E190E00E94F61D0E946D
:10184000BA0B08950E94C20B0895682F8EE090E0B5
:101850000E94E41D08950E944C166093EC01709361
:10186000ED018093EE019093EF016093E801709396
:10187000E9018093EA019093EB010895089508959A
:101880000E943F0C089508950E94430C08958CEC2B
:101890009EE00E94E0140E943E0C0E94400C0895BD
:1018A00081E008950E94500C0895089508950E94C3
:1018B000550C0E94560C08950E94CF0E0E941E02E5
:1018C00008950E9437160E949B0F0E945C0C0E9494
:1018D000440C0895AAE0B0E0E0E7FCE00C94851D1C
:1018E0000E94B10FC82E81110E942B0C84EEA82EED
:1018F00081E0B82E10E000E0902E802F0E94FC0EB8
:10190000E82EF501F1905F01F816B9F18091F00130
:1019100081FD0E94020F8F2D8E25D12CFF24F39480
:10192000982F9F2129F10E94520C882399F0DE8282
:101930009F82EF2081E009F480E088870E944016B2
:101940008160782F9A8789874E815F8168858A8533
:101950000E943C02F801EC51FE4F8081F826F08293
:1019600081E0C11001C080E02A96EBE00C94A11D3B
:10197000D394FF0CF4E0DF12D3CF0F5F1F4F04307E
:10198000110509F0B9CF8FEF89838A831B820E94EA
:1019900040168160782F9D838C8349815A816B81A9
:1019A0008D810E943C02DCCF0E946A0C0E94C7110C
:1019B0000E9431020895CF93DF930E94F20DEC0153
:1019C000811521E5920708F042C0811530E59307A3
:1019D00008F09DC0883E910530F5803E910508F0E5
:1019E00092C0883A910588F4853A910508F084C040
:1019F0008130910509F487C0009709F484C00497E9
:101A000008F081C0D0E0C0E07EC08F3B9105D0F7E8
:101A1000C85AD0E0CC0FDD1FC85BDE4F0990D881DB
:101A2000C02DD46470C08115904250F4C11581E07E
:101A3000D80708F068C0CD3ED10520F3D06563C05B
:101A4000C11590E4D907F0F2DF70D06A5CC081154F
:101A500025E5920700F5811534E5930708F08BC062
:101A6000811543E5940708F073C0C11582E5D807D6
:101A700008F469C0CE018370992721E030E002C0EC
:101A8000220F331F8A95E2F7C695C69580E2C89F5C
:101A9000E001112454C0C11599E5D907A8F4C11576
:101AA00028E5D20708F06CC0C11536E5D30708F069
:101AB000A9CF8C2F0E94890EC82FD0E0DC2FCC2715
:101AC000CC27DF71D0621FC0C1154AE5D40708F4E6
:101AD0005CC0CE0190568115904208F093CF8D2FB7
:101AE0008F710E94890E90E0982F882788279F7118
:101AF0009C012C2BE901E6CFC55AD0E0CA58DE4F35
:101B0000C881D0E0D064CE01DF91CF910895E4E0A8
:101B100096958795EA95E1F783702C2F2695269563
:101B2000237040E2249F90011124382B8C2F837066
:101B3000C1E0D0E002C0CC0FDD1F8A95E2F7C22BD6
:101B4000D32BDC68E0CFDC2FCC27C16FD06ADBCF92
:101B50008370992721E030E002C0220F331F8A955D
:101B6000E2F7C695C69590E2C99FE0011124C22B09
:101B7000D32BDA68C8CFD82FCC27C46FD06AC3CF95
:101B8000DC2FCC27C06FD06ABECF8C2F8F700E9405
:101B9000890E34E0D695C7953A95E1F7CF709C2F22
:101BA000EC01D069B0CF7430A8F4643098F494E0BC
:101BB000899FF0011124E70FF11DEE0FFF1FEE0FBB
:101BC000FF1FE60FF11DEE0FFF1FE455FF4F85913C
:101BD0009491089580E090E008950E94D30D0E94B2
:101BE000DB0C089582389105B1F1B0F48133910591
:101BF00009F475C048F48932910509F469C08A3244
:101C0000910509F473C008958533910509F459C00D
:101C10008933910501F10895833E9105A9F138F4C6
:101C2000803E9105F9F0823E910549F10895863E86
:101C30009105A9F1873E9105C9F1843E910519F5F9
:101C400020911B0221FF1FC080911A0284FD14C045
:101C500087EE90E0089520911A022370A1F080EEA3
:101C600090E0089520911A0220FD47C030911B0298
:101C700030FF09C024FF44C090E080E004C0209100
:101C80001A0222FDF7CF089520911A0222FD3BC0CF
:101C900030911B0230FDE3CF24FFF5CFEDCF209133
:101CA0001A0223FFF0CF24FDE7CFD2CF20911A02F2
:101CB00023FD2CC030911B0231FFEECF84EE90E06B
:101CC000089520911A0225FFDECF89E290E0089561
:101CD00020911A0225FFD7CF85E390E00895209147
:101CE0001A0226FFD0CF8AE290E0089520911A02CE
:101CF00026FFC9CF81E390E0089589E390E008953D
:101D000083EE90E0089582EE90E0089586EE90E0F4
:101D1000089590911A0292FF06C0282F287128304A
:101D2000F9F4877F846093FF06C0282F287128313B
:101D3000F1F4877E846120911B0220FF06C0382FBA
:101D400038713830D9F4877F816021FF06C0282F91
:101D500028712831D1F4877E816194FD877E0895B2
:101D6000282F24712430F9F68B7F8860DCCF282F50
:101D70002471243101F78B7E8861DDCF382F3171DA
:101D8000313019F78E7F8860E0CF282F2171213103
:101D900021F78E7E8861E1CF80E0089508950E944A
:101DA000750B811102C00E94220C0E94800B80934F
:101DB000F0010E948A0B90931B0280931A020E94EA
:101DC000CE0E0E94850B682F70E090E080E00E94AC
:101DD000DD05609190017091910180919201909147
:101DE00093010E941C06089508950E94F40E089520
:101DF00008950E94F80E0895E82FF0E0E05EFD4F90
:101E000080810895089580EA8A95F1F7089500C0C9
:101E100008950E94030F0895F894E82FE295EF705B
:101E2000F0E031A1282F2F7081E090E001C0880FF1
:101E30002A95EAF7982F9095932391A392A1892B45
:101E400082A37894089585E30E940C0F84E30E9496
:101E50000C0F86EC0E940C0F87E90E940C0F86E3A2
:101E60000E940C0F82E30E940C0F83E30E940C0F70
:101E700081E30E940C0F0895B0E0A0E0E2E4FFE0EF
:101E80000C94881DEC01D62E062F10E0C801835853
:101E90009E4F7C01FC0180818F3F09F445C0F8947E
:101EA000E82FE295EF70F0E091A18F7021E030E033
:101EB00001C0220F8A95EAF7892F822B81A382A184
:101EC0002095282322A378940E94070FE9E7F1E0E8
:101ED0004DE751E031E0C12C21912F3F51F1A22F6C
:101EE000A295AF70B0E090968C9190E02F7002C0F8
:101EF000959587952A95E2F780FD1BC0832FC82A08
:101F0000330F4E175F0741F7F70180818F3F11F0C4
:101F10000E940C0F61E0C11001C060E08D2D0E9495
:101F2000090FC00FD11FC882CDB7DEB7E8E00C940F
:101F3000A41D80E0E4CF0E94230F84E0E0E2F2E001
:101F4000DF01982F1D929A95E9F7ECE1F2E0DF01AD
:101F50001D928A95E9F784E00E94EE0F0E94980195
:101F60000895A4E0B0E0E7EBFFE00C948D1D19822A
:101F70001A821B821C8210E0612FCE0101960E9402
:101F80003C0F1F5F1430C1F744E050E0BE016F5FAB
:101F90007F4F8CE192E00E94C91D11E0009709F487
:101FA00010E0892B61F089819A81AB81BC8180939B
:101FB0001C0290931D02A0931E02B0931F02212FBA
:101FC00044E060E272E08CE192E00E94EF0F0E9438
:101FD0009B01812F2496E3E00C94A91D0895FF92A4
:101FE0000F931F93CF93DF93F82E092F162FD72F20
:101FF000C42F222349F081E08093F3010E94401610
:102000009093F2018093F1018091F3018823A1F074
:102010008091F1019091F2010E945816059760F0AD
:10202000EF2DF02FA12FBD2FCE0FDF2FD11DEC17DD
:10203000FD0739F41092F301CDB7DEB7E5E00C945B
:10204000A71D81918D93F3CF0E943F180E94610CD0
:102050000E944C1808950E9451180E94D40C0E94AE
:102060006B1808950E94D9150E9425180E94470CEC
:102070000E9424100E942B100E94570CFBCF8091CD
:10208000FA0180FF0DC06091070170E0660F771FB5
:102090006038710570F56115710569F1862F089535
:1020A00081FF07C06091070184E0689FB00111249F
:1020B000EFCF6091070182FD0AC08091F90188236A
:1020C000A9F02091060160910701821710F088E0C5
:1020D000ECCF869FC001112433E0880F991F3A95F9
:1020E000E1F7622F70E00E94641DD2CF68E070E0DB
:1020F000D5CF8FE7089581E008958091FA0180FFA0
:102100000CC06091030170E07595679575956795B2
:102110006115710549F1862F089581FF06C0609110
:10212000030170E075956795F3CF6091030182FD1F
:102130000BC09091F8019923A1F060910201809168
:102140000301961738F0682F70E06038710500F3CE
:102150008FE70895899FC001112470E00E94641DDB
:10216000F4CF61E070E0D7CF81E008958D3E31F487
:102170000E943F1081958093FE0108958E3E19F4D0
:102180000E943F10F8CF8F3E31F40E943F1081959E
:102190008093FD010895803F19F40E943F10F8CF0D
:1021A000893F29F40E947D108093FF0108958A3FA2
:1021B00021F40E947D108195F7CF8B3F31F40E946E
:1021C0007D1081958093000208958C3F19F40E9440
:1021D0007D10F8CF9FE0980F983070F4815F990BD5
:1021E00021E030E001C0220F8A95EAF78091FC01DE
:1021F000822B8093FC0108958D3F31F48091FA0188
:1022000081608093FA0108958E3F21F48091FA0154
:102210008260F7CF8F3FB9F78091FA018460F1CFE8
:102220004091FD018D3E59F48091FE0187FF0DC064
:102230001092FE0141110BC01092F90108C08E3EB0
:1022400081F48091FE0118169CF3442381F0809163
:10225000FF0190910002892B09F05AC01092F801F9
:1022600008958F3E49F447FFF0CF1092FD01809111
:10227000FE018111ECCFE0CF803F19F41416ACF3CE
:10228000E4CF9091FF01893F29F41916F4F61092DA
:10229000FF01DBCF8A3F19F497FFD7CFF8CF90919A
:1022A00000028B3F29F497FFD0CF10920002CDCFD0
:1022B0008C3F19F41916CCF3C8CF9FE0980F9830D3
:1022C00090F4815F990B21E030E0B90102C0660F04
:1022D000771F8A95E2F7CB0180959091FC018923C5
:1022E0008093FC01B2CF8D3F31F48091FA018E7F53
:1022F0008093FA01AACF8E3F21F48091FA018D7F5D
:10230000F7CF8F3F09F0A1CF8091FA018B7FF0CFFB
:1023100008950E9440169C019091FD018091FE015C
:10232000982B21F03093F7012093F6019091FF0153
:1023300080910002982B21F03093F5012093F40155
:102340008BEF91E00E940215089586E0EBEFF1E03B
:10235000DF011D928A95E9F71092F9011092F801B8
:102360001092FA010895FC01828181110EC08381CF
:1023700081110BC08481811108C091E08581811198
:1023800001C090E0892F8170089581E0FCCFA6E024
:10239000B0E0EDECF1E10C948D1D86E0EBEFF1E0A7
:1023A000DE01119601900D928A95E1F71092FD01E0
:1023B0001092FE011092FF01109200028B819C810D
:1023C000892B89F08091F6019091F7010E945816AF
:1023D000AC019091F9019923C9F18091080184170A
:1023E000150608F440C08D819E81892B91F0809163
:1023F000F4019091F5010E945816AC019091F801FA
:10240000992309F471C0809104018417150608F41A
:1024100079C0BE016F5F7F4F8BEF91E00E949115F5
:10242000811105C08BEF91E00E94B31181110E94D0
:10243000891186E0FE013196ABEFB1E001900D927B
:102440008A95E1F72696E3E00C94A91D20910901F5
:102450008AE0289F900111242417350720F69F5FFA
:102460009093F90102C09F3FD1F71B81112359F0CE
:102470000E943F109FEF11160CF491E0899F802D70
:1024800011248093FD011C81112359F00E943F10FB
:102490009FEF11160CF491E0899F802D11248093F9
:1024A000FE013091FD01332309F49DCF2091FE01FF
:1024B000222309F498CF45EB3403C001112499235A
:1024C00059F09093FD0145EB24039001112433232F
:1024D00039F03093FE0187CF81E08093FD01F3CF87
:1024E00081E08093FE017FCF209105018AE0289F43
:1024F000900111242417350708F08BCF9F5F90932C
:10250000F80102C09F3FD1F71D81112359F00E94AD
:102510007D109FEF11160CF491E0899F802D1124FE
:102520008093FF011E81112359F00E947D109FEFBF
:1025300011160CF491E0899F802D112480930002E4
:102540003091FF01332309F464CF2091000222234C
:1025500009F45FCF45EB3403C0011124992359F0EE
:102560009093FF0145EB240390011124332339F0AC
:10257000309300024ECF81E08093FF01F3CF81E0E2
:102580008093000246CFCF93DF93EC01FB01828161
:10259000882309F433C1C430FDE5DF07C0F5CB3F24
:1025A0009CE5D90730F49E0122503C452431310589
:1025B000B0F50E948A0B90931B0280931A02C131DE
:1025C0008CE5D80709F4EEC008F069C0C930ECE525
:1025D000DE0709F4D5C0C8F5C5308CE5D80709F485
:1025E000C7C000F5C330ECE5DE0709F4B9C008F058
:1025F000BBC0C230DC4509F4ADC080911A02909195
:102600001B020E94980B0E948F0580E008C0C23612
:10261000EDE5DE0771F2C63AFDE5DF0751F2DF9125
:10262000CF91089580911A028062C7309CE5D90746
:1026300009F493C080911A028061C830DC4508F427
:102640008CC080911A02806488C080911A028B7FAE
:10265000CD30FCE5DF0709F480C098F480911A02C0
:102660008E7FCB309CE5D90709F477C080911A02A0
:102670008C60CC30DC4508F470C080911A028D7FEC
:102680006CC080911A028F7ECF30FCE5DF0709F421
:1026900064C008F47BC080911A028F7D5EC0CE3F7B
:1026A0009CE5D90709F47AC050F5C531FCE5DF0790
:1026B00009F486C098F480911A02837FC3319CE5A7
:1026C000D90709F44AC008F471C00E948F0590919F
:1026D0001A02892F97FB87F980583FC0CC3FFCE551
:1026E000DF0709F449C008F055C080911B028160E2
:1026F000CB3FDC4509F081CF80931B027ECFC230F7
:10270000EDE5DE0709F468C0A8F4C1158DE5D8072A
:1027100009F452C080911B028360C130DD4560F333
:1027200080911B02982F909591708E7F892B90FB42
:1027300081F9E2CFC236EDE5DE0709F451C0C63AB1
:10274000FDE5DF0709F453C0C330DD4509F055CF7F
:1027500080E043C080911A02816080931A024DCFBD
:1027600080911A028260F9CF80911A028460F5CFBD
:1027700080911A028860F1CF80911B028260BCCFE9
:102780000E948F0580911A028068E7CF80911A021B
:10279000877FE3CF80911B028E7FAECF80911B029B
:1027A0008D7FAACF80911A028F7BD7CF0E948F0591
:1027B00080911A028F77D1CF80911B028C7F9CCFA2
:1027C00080911A0282FB992790F921E0922790FBD1
:1027D00082F990FB83F9C1CF81E00E94250C0DCFD7
:1027E00090911A02892F8F7E94FF8061B6CF9091CD
:1027F0001A02892F8E7F90FF8160AFCF81E00FCFCB
:10280000CF93DF93EB0186319C4511F50E948E0A30
:102810009A81992399F08A7A91E009F490E0909353
:102820000102811109C089E20E94660A0E94CF0A52
:1028300080E0DF91CF91089585E3F6CF809101028A
:10284000811104C089E20E946E0AF0CF85E3FBCFBC
:1028500081E0EFCF0F931F93CF93DF93C42FD22F3D
:10286000FC0182818823C9F0409304020E94401633
:10287000909303028093020280E28C0F883040F430
:10288000C77081E001C0880FCA95EAF70E9416035D
:10289000DF91CF911F910F910895109104021413AD
:1028A00032C080910202909103020E945816883C27
:1028B000910548F5C0E2CD0F1D17B9F080E2810FF8
:1028C000883040F4177081E001C0880F1A95EAF74C
:1028D0000E941D03C83048F481E09D2F977001C00D
:1028E000880F9A95EAF70E941603802F0E940D0325
:1028F000C83070F6D77081E001C0880FDA95EAF72A
:102900000E941D03C5CF80E28C0F883008F6C77087
:1029100081E001C0880FCA95EAF7F2CF0F939C01BE
:10292000CB01243F4CE5340759F1A8F4293DFCE5DF
:102930003F0701F12A3D4CE53407D1F1283D3C45E4
:1029400091F406E221EE41EE68ED7CE50E942A1446
:1029500080E00F910895263FFCE53F07E9F0B0F0D5
:10296000273F3C45F9F0FC018281882339F1109220
:102970000402EFCF07E225EE45EE69ED7CE5E6CFF8
:1029800006E221EE40EE64EF7CE5E0CF07E225EEC3
:1029900044EE65EF7CE5DACF06E221EE42EE66EF2B
:1029A0007CE5D4CF07E225EE46EE67EF7CE5CECF9F
:1029B00008E221E045EE6AED7CE5C8CF81E0C9CFB1
:1029C0009093830180938201089590930A028093EB
:1029D00009020895E0910902F0910A02309729F066
:1029E0000190F081E02D0995089580E00895E0912F
:1029F0000902F0910A02309721F00280F381E02D64
:102A000009950895E0910902F0910A02309739F092
:102A100022E0DC012C930480F581E02D09950895D6
:102A200020910702309108022817390771F090931E
:102A3000080280930702E0910902F0910A023097A0
:102A400021F00680F781E02D099508952091050277
:102A5000309106022817390771F09093060280938F
:102A60000502E0910902F0910A02309721F00084FA
:102A7000F185E02D099508959C012E5F3F4FAC0133
:102A8000485F5F4F80E02417350709F40895F90186
:102A900091919F019923B9F38F5FF5CF662349F098
:102AA000FC01329608962191261729F0E817F907BC
:102AB000D1F780E0089581E008959C01FC013296F1
:102AC0009FEF80E04191461751F09F3F19F441116B
:102AD00001C0982F8F5F8630A9F79F3F09F40895B2
:102AE000290F311D97FD3A95F90162830895FC0184
:102AF000329608962191261303C0DF0111971C928C
:102B0000E817F907B9F708950E945D1508950E9426
:102B100077150895029626E0FC0111922A95E9F7AF
:102B2000089546E050E00E94C91D21E0892B09F478
:102B300020E0822F089508950E949B150895811129
:102B400006C081E080930B020E949C15089582E0EC
:102B5000F9CF83E080930B020E949C1508950E9498
:102B60009F15089581E080930B020E949C150895A3
:102B70000E94B2150895089508950E94BC15089505
:102B8000089508950E94BB150895CF930E94C01523
:102B90000E94B10F0E94C115C0E08C2F0E94FC0E54
:102BA000811105C0CF5FC430C1F7CF91089581E096
:102BB000FCCF85B7806885BF85B7806885BF0895DD
:102BC0001F921FB61F9211248F939F93AF93BF93B1
:102BD00080910C02811113C08091240290912502F2
:102BE000A0912602B09127024196A11DB11D8093AC
:102BF000240290932502A0932602B0932702BF914E
:102C0000AF919F918F911F901FBE1F90189580913B
:102C10002C02843031F10E940B0210920C0288E1E8
:102C200090E020E40FB6F894A895809360000FBE62
:102C30002093600083B7817F846083BF83B7816006
:102C400083BF7894889583B78E7F83BF0FB6F8943F
:102C5000A895809160008861809360001092600068
:102C60000FBE08950E948F050E941002089582E011
:102C700084BD93E095BD9AEF97BD80936E00089553
:102C80002FB7F8948091240290912502A0912602FA
:102C9000B09127022FBF08952FB7F89460912402B6
:102CA0007091250280912602909127022FBF0895EE
:102CB0009C014FB7F8948091240290912502A09135
:102CC0002602B09127024FBF821B930B0895789480
:102CD0001F921FB61F9211248F939F93AF93BF93A0
:102CE0008091240290912502A0912602B0912702A2
:102CF0000196A11DB11D8093240290932502A093FB
:102D00002602B0932702BF91AF919F918F911F90A0
:102D10001FBE1F90189587E797E79093010880934F
:102D2000000888E19AE00FB6F894A89580936000B7
:102D30000FBE90936000FFCF88E19AE00FB6F89441
:102D4000A895809360000FBE90936000FFCF8091A4
:102D50001802089508959C0182E08093E9009FEF96
:102D60008091E800915085FD06C085ED8A95F1F7C8
:102D700000009111F5CF8091E80085FF0CC050E074
:102D800040E066E070E0C9010E94DD188091E80033
:102D90008E778093E8000895CF93DF93EC0181E074
:102DA0008093E9008FEF9091E800815095FD06C077
:102DB00095ED9A95F1F700008111F5CF8091E8002B
:102DC00085FF14C050E040E068E070E0CE010E9452
:102DD000DD188091E8008E778093E80088E0FE019E
:102DE000A0E1B2E001900D928A95E1F7DF91CF91D9
:102DF000089580930D0270930F0260930E028091EC
:102E00002C02843001F582E08093E9008FEF9091ED
:102E1000E800815095FD06C095ED9A95F1F7000008
:102E20008111F5CF8091E80085FF0DC050E040E0B2
:102E300063E070E08DE092E00E94DD188091E80090
:102E40008E778093E8000895BC0184E00E94F91613
:102E50000895BC0183E00E94F916089580912B0229
:102E6000811109C00E946D1A0E94CA1A8091E20065
:102E700084608093E200089510922B0208950E94CE
:102E8000B21508956091280281E0611101C080E0CF
:102E90000E94A915089590912C0281E0943009F0C8
:102EA00080E0609128020E94AF15089542E061EC35
:102EB00081E00E94E91942E261EC82E00E94E91996
:102EC00090912C0281E0943009F080E0609128021A
:102ED0000E949F15089580912E02833009F461C0ED
:102EE00030F48130D1F1823009F49EC008958A30E7
:102EF00009F48AC08B3009F46FC0893009F050C0E2
:102F000080912D02813209F04BC080913102909165
:102F10003202029708F044C08091E800877F8093D6
:102F2000E8008091E80082FF37C09091F300809123
:102F3000F200029731F48091F100813011F0863077
:102F400021F48091F100809318028091E8008B7742
:102F50008093E8000E941D1A23C080912D02813ABF
:102F6000F9F48091E800877F8093E8008091310236
:102F700090913202892B61F468E080E192E070E088
:102F80000E942C198091E8008B778093E8000895C7
:102F900060E090E080E0F3CF80912C028111C1CFFE
:102FA000089580912D02813AD9F780913102909154
:102FB0003202892BA9F78091E800877F8093E8008F
:102FC0008091E80080FFFCCF809116018093F10092
:102FD0008091E8008E77BCCF80912D02813201F77D
:102FE0008091310290913202892BD1F68091E800D4
:102FF000877F8093E8000E941D1A80912F028093A2
:1030000016010E948F05089580912D02813241F6AC
:103010008091E800877F8093E8000E941D1A8091CC
:10302000300280931902089580912D02813A09F0AF
:10303000B7CF8091E800877F8093E8008091E80017
:1030400080FFFCCF80911902C1CF84B7877F84BFF6
:103050000FB6F894A8958091600088618093600015
:10306000109260000FBE80E890E00FB6F894809355
:103070006100909361000FBE0E94B81508950E94F0
:103080006D1A0E94CA1AE2EEF0E0808184608083AB
:1030900078940E94491D08958AE091E00E94E51409
:1030A000089580912C02853031F480912C02853076
:1030B00019F00E94321608950E94071680912A0284
:1030C000882399F30E94C515882379F30E94C718B5
:1030D0000E948F05EACF08950E946F180895292F46
:1030E00033272330310519F168F42130310509F413
:1030F00044C02230310509F445C090E080E030E062
:1031000020E025C02132310549F122323105A9F7ED
:1031100080E490E024E132E061157105C1F08BE7B5
:1031200090E029E931E06130710589F0E6CF992717
:103130008130910581F0009729F00297F1F6ECE2D9
:10314000F1E002C0E8E4F1E0849190E09F01FA012F
:10315000318320830895E8E3F1E0F6CF89E090E041
:103160002EE531E06115710591F389E090E027E7E4
:1031700031E06130710559F3C0CF82E190E027E87A
:1031800031E0E5CF8BE390E02CE431E0E0CF80E16B
:1031900089BD82E189BD09B400FEFDCF8091D800D0
:1031A0008F7D8093D8008091E00082608093E00062
:1031B0008091E00081FDFCCF0895AF92BF92CF9245
:1031C000DF92FF920F931F93CF93DF936C01EB017C
:1031D0008A010E943C1AF82E811123C001151105A5
:1031E00039F0F80180819181C81BD90BC80ED91E16
:1031F000B12CA12C2097A9F08091E80085FD22C078
:103200008091E8008E778093E80001151105A1F008
:10321000F80180819181A80EB91EB182A08285E05B
:10322000F82E8F2DDF91CF911F910F91FF90DF909E
:10323000CF90BF90AF9008950E943C1A8823D1F29E
:10324000F82EEFCFF60181916F018093F100219765
:10325000FFEFAF1ABF0ACECFFC01809133029091ED
:10326000340286179707A0F06115710529F4909133
:10327000E8009E779093E80090E06115710551F4A5
:10328000911108C08091E80082FF34C080E0089569
:10329000BC01F2CF80912C028823C1F18530C1F1AD
:1032A0008091E80083FD30C08091E80082FDEACF84
:1032B0008091E80080FFE1CF8091F3002091F2003F
:1032C000382F6115710519F02830310558F091E05B
:1032D0002830310509F090E02091E8002E77209306
:1032E000E800CBCF81918093F100615071092F5F8D
:1032F0003F4FE7CF80912C02882341F0853041F089
:103300008091E80083FFBECF81E0089582E00895B8
:1033100083E00895FC018091330290913402861776
:103320009707A0F06115710529F48091E8008E7768
:103330008093E80090E06115710551F4911108C087
:103340008091E80082FF35C080E00895BC01F2CF93
:1033500080912C028823C9F18530C9F18091E80061
:1033600083FD31C08091E80082FDEACF8091E800C2
:1033700080FFE1CF8091F3002091F200382F61159A
:10338000710519F02830310558F091E028303105E9
:1033900009F090E08091E8008E778093E800CBCF31
:1033A00084918093F1003196615071092F5F3F4FF6
:1033B000E6CF80912C02882341F0853041F0809146
:1033C000E80083FFBDCF81E0089582E0089583E0A7
:1033D0000895982F973028F08F708093E90081E04E
:1033E00008959093E900242F762F50E0981731F03C
:1033F0007091EC002091ED005091F00021FD02C091
:103400009F5FE8CF3091EB003E7F3093EB0030912F
:10341000ED003D7F3093ED003091EB003160309353
:10342000EB007093EC002093ED005093F00020919E
:10343000EE0027FDE5CF80E0089580912D0287FF03
:1034400013C08091E80082FF06C08091E8008B776E
:103450008093E80004C080912C028111F2CF08957E
:1034600080912C028823D9F38091E80080FFF8CF67
:103470008091E8008E77ECCF2091E4003091E50058
:1034800095E6A9012091EC00822F817020FF06C0F3
:103490008091E80080FF06C080E008952091E80058
:1034A00022FD1AC080912C02882389F0853089F092
:1034B0008091EB0085FD0FC02091E4003091E50084
:1034C00042175307F9F29150E1F684E0089582E043
:1034D000089583E0089581E008950E94DC1A0E9417
:1034E000E41AE0EEF0E0808181608083E8EDF0E0B6
:1034F00080818F77808319BCA7EDB0E08C918E7F9F
:103500008C9380818F7E808310922B0208950F937D
:103510001F93CF93DF930E94DC1A0E94E41AC8ED38
:10352000D0E088818F7788838881806888838881CC
:103530008F7D888319BC10922C0210922802109261
:103540002A021092290200EE10E0F80180818B7FA0
:10355000808388818160888342E060E080E00E940F
:10356000E919E1EEF0E080818E7F8083E2EEF0E009
:10357000808181608083808188608083F801808180
:103580008E7F8083888180618883DF91CF911F91B6
:103590000F910895E8EDF0E080818F7E8083E7ED64
:1035A000F0E080818160808384E082BF81E080934D
:1035B0002B020E94871A0895E8EDF0E080818E7F4B
:1035C00080831092E20008951092DA001092E100D8
:1035D00008951F920F920FB60F9211242F933F93CD
:1035E0004F935F936F937F938F939F93AF93BF930B
:1035F000EF93FF938091E10082FF0BC08091E20086
:1036000082FF07C08091E1008B7F8093E1000E94E0
:10361000481D8091DA0080FF19C08091D80080FF9A
:1036200015C08091DA008E7F8093DA008091D900F6
:1036300080FF96C080E189BD82E189BD09B400FEAA
:10364000FDCF81E080932C020E942E178091E10033
:1036500080FF19C08091E20080FF15C08091E200D8
:103660008E7F8093E2008091E20080618093E2008F
:103670008091D80080628093D80019BC85E0809347
:103680002C020E9442178091E10084FF2BC08091A0
:10369000E20084FF27C080E189BD82E189BD89B550
:1036A000982F917080FFFBCF8091D8008F7D809301
:1036B000D8008091E1008F7E8093E1008091E2004C
:1036C0008F7E8093E2008091E20081608093E2002F
:1036D00080912802882309F449C084E080932C0259
:1036E0000E944B178091E10083FF29C08091E20086
:1036F00083FF25C08091E100877F8093E10082E015
:1037000080932C02109228028091E1008E7F80939A
:10371000E1008091E2008E7F8093E2008091E200E0
:1037200080618093E20042E060E080E00E94E9195D
:103730008091F00088608093F0000E943F17FF9115
:10374000EF91BF91AF919F918F917F916F915F9119
:103750004F913F912F910F900FBE0F901F90189592
:1037600019BC10922C020E943C1770CF8091E3008C
:1037700087FD93E090932C02B3CF1F920F920FB668
:103780000F9211242F933F934F935F936F937F93E7
:103790008F939F93AF93BF93CF93DF93EF93FF9359
:1037A000D091E900DF708091EC00C82FC17080FDDE
:1037B000C0E81092E9008091F000877F8093F000CC
:1037C00078940E94011C1092E9008091F0008860BA
:1037D0008093F000CD2BCF70C093E900FF91EF9163
:1037E000DF91CF91BF91AF919F918F917F916F9119
:1037F0005F914F913F912F910F900FBE0F901F90AF
:103800001895AAE2B0E0E7E0FCE10C948D1D8DE292
:1038100092E02091F100FC012193CF01F2E0853389
:103820009F07B9F70E946B178091E80083FF1EC1C4
:1038300080912D0290912E029A3008F017C1E92F45
:10384000F0E0EA5DF14E0C94781D803899F08238F2
:1038500009F00CC1809131028F70873008F006C1E9
:103860008093E9008091EB0085FB882780F9109216
:10387000E90006C08091290290912A02911182608C
:103880009091E800977F9093E8008093F100109268
:10389000F1008091E8008E77E5C0882309F4D3C059
:1038A000823009F0E3C080912F028111D6C080914F
:1038B00031028F702FEF280F263008F0D7C0809389
:1038C000E9002091EB0020FFC8C0933031F48091D3
:1038D000EB0080628093EB00C0C09091EB009061A0
:1038E0009093EB0021E030E001C0220F8A95EAF7C7
:1038F0002093EA001092EA008091EB008860EACF02
:103900008111B4C010912F021F778091E30080785D
:10391000812B8093E3008091E800877F8093E8000B
:103920000E941D1A8091E80080FFFCCF8091E30087
:1039300080688093E30082E0111183E080932C0281
:1039400095C08058823008F091C080912F029091EC
:1039500030028C3D23E09207A1F583E08A838AE25E
:1039600089834FB7F894DE01139620E03EE051E2E0
:10397000E32FF0E050935700E49120FF03C0E2955D
:10398000EF703F5FEF708E2F90E0EA30C0F0C79687
:103990008D939D932F5F243159F74FBF8091E8009D
:1039A000877F8093E8006AE270E0CE0101960E9472
:1039B0002C198091E8008B778093E80057C0C0965F
:1039C000E7CF6091310270913202AE014F5F5F4FDD
:1039D0000E946C18BC01892B09F448C09091E80042
:1039E000977F9093E80089819A810E948A19E1CF9C
:1039F0008038E1F58091E800877F8093E80080912E
:103A000028028093F10045CF811130C090912F02A0
:103A1000923060F58091E800877F8093E800909372
:103A200028020E941D1A80912802882311F084E048
:103A300005C08091E30087FDFACF81E080932C02DE
:103A40000E94561713C080912F02813079F481E0D3
:103A5000933009F080E080932A021092E90080916F
:103A6000E800877F8093E8000E941D1A8091E8009B
:103A700083FF0AC08091E800877F8093E8008091EF
:103A8000EB0080628093EB00AA96E3E00C94A91D02
:103A90000895CF9380912C028823A1F0C091E90072
:103AA000CF709091EC00892F817090FD80E8C82B39
:103AB0001092E9008091E80083FD0E94011CCF7004
:103AC000C093E900CF91089597FB072E16F4009458
:103AD00007D077FD09D00E94B51D07FC05D03EF444
:103AE000909581959F4F0895709561957F4F0895AA
:103AF000EE0FFF1F0590F491E02D09942F923F9255
:103B00004F925F926F927F928F929F92AF92BF92ED
:103B1000CF92DF92EF92FF920F931F93CF93DF9399
:103B2000CDB7DEB7CA1BDB0B0FB6F894DEBF0FBEF6
:103B3000CDBF09942A88398848885F846E847D8443
:103B40008C849B84AA84B984C884DF80EE80FD8045
:103B50000C811B81AA81B981CE0FD11D0FB6F894BB
:103B6000DEBF0FBECDBFED010895AA1BBB1B51E107
:103B700007C0AA1FBB1FA617B70710F0A61BB70BDD
:103B8000881F991F5A95A9F780959095BC01CD0182
:103B90000895FB01DC0104C08D910190801921F48E
:103BA00041505040C8F7881B990B0895F999FECFF2
:103BB00092BD81BDF89A992780B50895A8E1B0E03B
:103BC00042E050E00C940A1E262FF999FECF92BDD8
:103BD00081BDF89A019700B4021639F01FBA20BDD2
:103BE0000FB6F894FA9AF99A0FBE08950396272F04
:103BF0000E94E51D0E94E41D252F0E94E51D242F33
:103C00000C94E51D0196272F0E94E51D0C94E41DE0
:103C1000DC01CB01FC01F999FECF06C0F2BDE1BD8C
:103C2000F89A319600B40D9241505040B8F708957B
:103C3000F894FFCF5F035F03900390031D043904E2
:103C4000BF03BF034404D004DF04DF04251C4D1C64
:103C5000361D4D1C361D801CA11C361DF81C041D74
:103C6000DA01280850011E0A1401A716CC16AB165B
:103C700029172417AA1601E200E900EA00B500B6E8
:103C800000B700CD008301CC008A0192019401218C
:103C900002230224022502260227022A02B300B4CC
:103CA000006F007000818283E200E900EA00B50045
:103CB000B600B700CD008301CC008A0192019401C7
:103CC0002102230224022502260227022A02B3002F
:103CD000B4006F007000818283363233313534C6D0
:023CE00097004B
:00000001FF
