:100000000C94A3010C94C0010C94C0010C94C00189
:100010000C94C0010C94C0010C94C0010C94C0015C
:100020000C94C0010C94C0010C94FF1E0C94D31FBF
:100030000C9445190C94C0010C94C0010C94C0019F
:100040000C94C0010C94C0010C94C0010C94C0012C
:100050000C94C0010C94CC190C94C0010C94C001F8
:100060000C94C0010C94C0010C94C0010C94C0010C
:100070000C94C0010C94C0010C94C0010C94C001FC
:100080000C94C0010C94C0010C94C0010C94C001EC
:100090000C94C0010C94C0010C94C0010C94C001DC
:1000A0000C94C0010C94C0010C94C00100002B0002
:1000B000520029000000500051004F00E3001B00D7
:1000C00006001900E0001D001C00E2000000010015
:1000D0000100010000000100010001000100010019
:1000E0000100010001000100010001000000010009
:1000F00001000100000001000100010001000100F9
:1001000001000100010001000100010000000100E8
:1001100001000100000001000100010001000100D8
:1001200001000100010001000100010000000000C9
:10013000000000002A2B2800000000000000000042
:100140000000000000000029000000002C1E3420E8
:10015000212224342627252E362D3738271E1F200E
:100160002122232425263333362E37381F04050653
:100170000708090A0B0C0D0E0F1011121314151697
:100180001718191A1B1C1D2F3130232D3504050695
:100190000708090A0B0C0D0E0F1011121314151677
:1001A0001718191A1B1C1D2F3130354C0000000088
:1001B000000000000000000000000000000000003F
:1001C000000000000000000000000000000000002F
:1001D0007E0F00D4FFFFFFC7000000780A0366000F
:1001E00064003000300000000E03540073007500FE
:1001F00069006800610000000403090409025B0053
:10020000030100A0FA090400000103010100092113
:1002100011010001224000070581030800010904C3
:100220000100020300000009211101000122220047
:1002300007058203200001070503032000010904CC
:1002400002000103000000092111010001227B00CE
:1002500007058403200001120100020000000821AC
:100260000108000100010200010660FF0961A1010F
:100270000962150026FF00952075088102096315A3
:100280000026FF00952075089102C005010902A112
:100290000185020901A10005091901290815002598
:1002A0000195087501810205010930093115812583
:1002B0007F95027508810609381581257F9501759E
:1002C000088106050C0A38021581257F95017508FD
:1002D0008106C0C005010980A101850319012AB763
:1002E00000150126B700950175108100C0050C09A5
:1002F00001A101850419012AA002150126A0029579
:100300000175108100C005010906A101050719E06A
:1003100029E71500250195087501810295017508E9
:1003200081010507190029FF150026FF00950675B4
:1003300008810005081901290595057501910295A7
:100340000175039101C011241FBECFEFDAE0DEBFBB
:10035000CDBF11E0A0E0B1E0E0ECF4E402C0059014
:100360000D92A039B107D9F722E0A0E9B1E001C0B0
:100370001D92A933B207E1F70E94BD100C943522FB
:100380000C94000081E0089581E008950E94C4016A
:10039000089508950E94C9010895A5E0B0E0E3ED35
:1003A000F1E00C94AA2149835A8330919301898109
:1003B0009A81311119C0662399F0222389F00E9495
:1003C000FD07182F682F89819A810E94DA076981B9
:1003D0007A81812F0E94AE162596E3E00C94C62107
:1003E0000E94EB07182FF3CF0E94FD0769817A81E5
:1003F000F1CFFC01262F408151816281738184817C
:100400000E94CD01089581E00895CF93DF93EC0120
:1004100060E00E94F901BE010E94CA01DF91CF9104
:100420000895E1E0F0E0DF0102C0AA0FBB1F6A956A
:10043000E2F7BD01DF0102C0AA0FBB1F4A95E2F738
:100440006A2B01C0EE0F2A95EAF7962F9823961390
:1004500002C08E2B0895E0958E230895242F462FF9
:10046000682F80919A010E9411020E943A07089514
:100470000E94800F08950E94840F089508950E949D
:10048000D7060E943E022FEF84E39CE0215080407B
:100490009040E1F700C0000008950E943F020E94D2
:1004A000F01908950E943F020E94011A08950F93C7
:1004B0001F93CF93DF938C0161E00E94F901EC015F
:1004C000B8010E94B313811106C080E0DF91CF9183
:1004D0001F910F910895B801CE010E94C601882393
:1004E000A1F3B801CE010E94F317882371F3B8017C
:1004F000CE010E94A214882341F3B801CE010E94CC
:100500006517882311F3F8018281882361F0CA35C9
:10051000FDE5DF0701F158F4C115ECE5DE0791F0C8
:10052000CE3DDC4591F0C8010E94C201CFCFCC3551
:100530008DE5D80769F090F0C73ADD45A1F70E9434
:100540005202C3CF0E944D02C0CF0E94B60CF7CF1B
:100550000E94F00BE8CF0E94FA0BE5CF0E94FE0B41
:10056000E2CF0E9422190E94950308950E949903E8
:100570000E9427190895B0E0A0E0E1ECF2E00C94AD
:10058000A621E82FF0E0E45DFE4FD490282F2695B9
:100590002695269530E0F901E453FE4F04918770CB
:1005A00010E0082E02C0159507950A94E2F7017035
:1005B0001127F901E454FE4FE490F12C082E02C0FB
:1005C000F594E7940A94E2F791E0E922FF24F90117
:1005D000E455FE4FC491D0E002C0D595C7958A95E9
:1005E000E2F7C170DD270115110519F081EE0E94B7
:1005F000E403E114F10419F086EE0E94E4038D2D6A
:100600000E947A04E114F10419F086EE0E9430048D
:100610000115110519F081EE0E943004CD2B19F05F
:100620008CE20E947A04CDB7DEB7E7E00C94C221D9
:10063000EF92FF920F931F93CF93DF93EC01162F4E
:100640000AE08881882309F454C0813009F04EC043
:100650008981813099F47E0122E0E20EF11C8A81C9
:100660000E947A04E7012196812F815050F3EFE92F
:10067000FFE03197F1F700C00000F7CF823041F47E
:100680007E0182E0E80EF11C8A810E94E403EACF39
:10069000833041F47E01E2E0EE0EF11C8A810E947B
:1006A0003004E0CF843011F02196DDCF2A812296EC
:1006B00090E080E0AE014F5F5F4F2053330B2A3054
:1006C000310548F0019778F2EFE9FFE03197F1F753
:1006D00000C00000F7CF089FB001099F700D1124E2
:1006E000C901860F971F2981EA01E4CF0E94BB024E
:1006F000BACFCDB7DEB7E6E00C94C32160E00E942C
:100700001803089508950E948203089581E00895D2
:100710000E94860308950895CF93C82F0E948303F3
:100720008C2F0E948803CF91089580E00E948C0353
:1007300008950E944F180E948C0308950E944F183C
:1007400090919201981721F0809392010E948C035E
:100750000895ABE0B0E0EFEAF3E00C94AB214F83F7
:10076000588769877A878B8761110E943B0B1E82AD
:100770001D8285E0FE013796DE01119601900D92F3
:100780008A95E1F78C819D81892B61F449815A8199
:100790006B817C818D819E810E94640A2B96E2E0B0
:1007A0000C94C72189819A8189238F3F79F3CE01E7
:1007B00001960E9403028111E9CFF0CFFC018081F4
:1007C00091810E942A080895CF93C82F8823B9F0F9
:1007D0008CEF8C0F813AA8F46C2F809100019091DE
:1007E00001010E94B318882329F08C2F0E94FB0A74
:1007F0000E945C0B8C2F0E94F30A0E945C0BCF912D
:10080000089580E28C0F883048F4C77081E001C001
:10081000880FCA95EAF70E941E0BEFCFEBE5EC0FAD
:10082000E33040F4F0E0EB5BFE4F808190E00E940B
:100830007518E5CFE8E5EC0FE73150F4F0E0EE0F86
:10084000FF1FE95EFE4F808191810E948B18D7CFF8
:10085000C03FA8F28C2F0E9441110E941412CFCFEA
:10086000882379F19CEF980F913A28F40E94FB0AB3
:100870000E945C0B089590E2980F983050F48770B6
:1008800091E001C0990F8A95EAF7892F0E94240B05
:10089000EFCF9BE5980F933028F490E080E00E9422
:1008A0007518089598E5980F973128F490E080E046
:1008B0000E948B180895803F20F00E949B110E9497
:1008C000141208951F93CF93DF93182FEB010E940A
:1008D000E403209739F4812F0E943004DF91CF91F7
:1008E0001F9108958FE99FE00197F1F700C0000084
:1008F0002197EFCF70E060E0893311F460E570E09C
:100900000E9462040895882321F00E941E0B0E9419
:100910005C0B0895882321F00E94240B0E945C0B3D
:100920000895B0E0A0E0E7E9F4E00C94A4216C01A4
:10093000D62FC72FFC011281F580F2949FE0F92297
:100940000E94140BE82E8823B9F0E12E1123A1F0A8
:100950008C2F807F803421F080E28D0F8830D0F0A2
:1009600080911F0282FF16C082E00E94BF0B0E948E
:10097000140B91E0E82EE926BC2EB2948FE0B82249
:10098000FBE0FB1508F468C0EB2DF0E0E95CFD4DE1
:100990000C948E21E12CF0CF0C2F0F70C07F11F042
:1009A0000295007F112399F0002359F080E28D0F0A
:1009B000883010F0D11107C0802F0E941E0B0E94BA
:1009C0005C0B8D2F41C0802F0E942E0BF8CF8D2FF6
:1009D0000E943004002309F43FC080E28D0F88306C
:1009E00010F0D11104C0802F0E94240B03C0802F6F
:1009F0000E94340B0E945C0B2FC00C2F0F70C07F25
:100A0000C03211F00295007FDD2381F0D13009F46E
:100A100063C0112309F46DC0FF2009F463C0F6011F
:100A2000858180FFCECF8F7085835CC080911F024F
:100A300082FD33C0112359F0002329F0802F0E943A
:100A40001E0B0E945C0B80E00E94E40305C080E066
:100A50000E9430040111C7CFEB2DE850FF0B3497F3
:100A600020F40E944F180E948C03EE2089F00E940F
:100A7000100B80FD0DC0F60112820E940A0B0E942D
:100A80004E07C6010E9497060E940A0B0E945A0751
:100A9000CDB7DEB7E9E00C94C021112389F0F11045
:100AA00006C00E943E0B802B0E948304D5CF21E01C
:100AB000F212F7CF0E943E0B802B0E94450BCCCF49
:100AC000F11006C00E94520B802F0E948A04C4CFEE
:100AD00031E0F31609F2F6CF112331F085E08F15DE
:100AE00008F4BACF802FE0CF94E09F1508F4B4CF7C
:100AF000EBCFFF2049F3D93349F4FFEF27EE33E082
:100B0000F15020403040E1F700C000008D2F0E94DE
:100B10003004A2CF8C2F86958695837069F0813042
:100B200009F09ACF8D2F9C2F9370111102C090E085
:100B300080E00E948B1890CF8D2F9C2F9370111105
:100B400002C090E080E00E94751886CF8D2F11239F
:100B500029F00E9441110E9414127ECF0E949B1125
:100B6000FACF8C2F837079F5111176CF4D2F4295E6
:100B700046954770440F440F8D2F8F70042E01C08F
:100B8000880F0A94EAF72D2F2071D4FF07C02FE0B9
:100B900030E001C0220F4A95EAF72095C695C69528
:100BA000C370822BC23049F058F4C13019F00E9452
:100BB000280752CF0E9422074FCF0E942E074CCF0A
:100BC0000E941F0749CF8695112311F08C2F817049
:100BD000882309F441CF4D2F429546954770440F25
:100BE000440F8D2F8F70042E01C0880F0A94EAF7EE
:100BF0002D2F2071D4FF07C02FE030E001C0220F5D
:100C00004A95EAF72095C695C695C370822BC230E7
:100C100049F058F4C13019F00E9479071DCF0E94A5
:100C200073071ACF0E947F0717CF0E943A0714CF8D
:100C3000CF70112329F08C2F0E944E078D2F34CFB7
:100C40008D2F0E948A048C2F0E945A0705CFD23F15
:100C500051F160F4D03FB9F0D13F81F0112309F494
:100C600049C0F110AECE8C2F8F7121C0D33F11F14E
:100C7000D43FA1F780911F0282FD26C08C2F8F7177
:100C8000112311F314C0112349F084E08F1508F4E7
:100C9000E3CE8C2F8F710E946707DECE95E09F1503
:100CA00008F4DACEF6CF8C2F8F711111CDCF0E94C0
:100CB0004E07D2CE112329F08C2F8F710E94450749
:100CC000CBCE0E944107C8CE112349F0CF718C2FA3
:100CD0000E944E0763E08C2F0E94A10BBDCE81E0E5
:100CE0000E94BF0BE1E0EF1508F0B6CE82E00E9453
:100CF000BF0BB2CEF110FFCE8C2F8F71A5CF0F930B
:100D00001F93CF93DF93EC01688179818A810E94E0
:100D100035088C010E9485070E941E07B801CE018C
:100D20000E949104DF91CF911F910F910895CF936D
:100D3000DF93EC018B819C81892B29F0888199813B
:100D400089238F3F51F4DF91CF910895CE010E9406
:100D50007F06CE010E940502F6CFCE010E94570207
:100D60008111F4CF0E94140B882369F38A818823B0
:100D700051F380911F0282FFE6CF82E00E94BF0BF9
:100D8000E2CF90E080E00E94751890E080E00E9441
:100D90008B180E943B0B0E945C0B0E9430120E9439
:100DA000141208950E94030B0E94C10608950E9428
:100DB0002B0B0E94D206089592959F70963091F069
:100DC00058F4925F9F70923058F4803F19F030F4DD
:100DD000883E30F481E008959A5FF4CF843FD1F3E8
:100DE00080E00895883EB0F3813FD1F7F3CFFC0156
:100DF000808191810E942A080E94DC060895A5E066
:100E0000B0E0E5E0F7E00C94AB212596E2E00C942D
:100E1000C721A6E0B0E0EFE0F7E00C94AB21269606
:100E2000E2E00C94C72108950E94130708950E94E0
:100E3000140780939B010E94C106089508950E94A3
:100E40001707089590919B01892B0E941707089519
:100E500090919B0189230E941707089590919B010F
:100E600089270E94170708950E94130708950E947A
:100E7000340708950E94370780939A010E94C106A3
:100E8000089580E00E943A07089591E001C0990F0B
:100E90008A95EAF7892F0E943A07089521E030E009
:100EA00001C0220F8A95EAF780919A01822B0E9455
:100EB0003A07089521E030E001C0220F8A95EAF751
:100EC000209580919A0182230E943A07089521E09B
:100ED00030E001C0220F8A95EAF780919A018227BB
:100EE0000E943A07089590919A01892B0E943A072F
:100EF000089590919A0189230E943A07089590914C
:100F00009A0189270E943A0708950895262F27708D
:100F100091E001C0990F2A95EAF723E0769567954D
:100F20002A95E1F7FB01EE0FFF1FE60FF71FE40F15
:100F3000F51F50E040E0682F70E08191DF011197CC
:100F40009B01042E02C0369527950A94E2F7217082
:100F500021952827292328272C934F5F5F4F433063
:100F6000510559F70895A82FA77023E09695879506
:100F70002A95E1F7FC01EE0FFF1FE80FF91FE60FBE
:100F8000F71F50E040E080E0219130E00A2E02C0DF
:100F9000369527950A94E2F721703327042E01C075
:100FA000220F0A94EAF7822B4F5F5F4F43305105BF
:100FB00059F70895262F943068F4843058F434E0BB
:100FC000939FB0011124680F711D44E951E0822FF5
:100FD0000E9486070895943070F4843060F444E0F1
:100FE000949F9001112464E971E0820F932F911D69
:100FF0000E94B307089580E00895CF92DF92FF9298
:101000000F931F93CF93DF936C0100919A0180910E
:101010009B01082BC7E0D0E010E0FC2EC8010C2E8D
:1010200002C0959587950A94E2F780FD0CC0219740
:10103000A0F7F12C8F2DDF91CF911F910F91FF9091
:10104000DF90CF900895B6018C2F0E94690E019712
:1010500071F3F0CFCF93DF93EC010E94FD07BE0147
:101060000E94690EDF91CF9108951F93CF93DF9374
:10107000EB0190919301992339F0CB010E942A084A
:10108000DF91CF911F910895882369F0CB010E94D1
:10109000FD07182F682FCE010E94DA07BE01812FAD
:1010A0000E94690EEDCFCB010E94EB07182FF6CFFF
:1010B0001F93CF93DF93C0919C0116E080919D0117
:1010C0008C1304C0DF91CF911F910895D0E01C9F35
:1010D000F0011D9FF00D1124E256FE4F4081518119
:1010E00062817381848195810E9409072196C7706E
:1010F000E5CF4091CE015091CF016091D001709128
:10110000D1018091D2019091D3010E9409070895E5
:101110001F93CF93DF938091D301807F09F049C063
:101120008091D001882309F444C080919C01C09132
:101130009D016091CE017091CF01A091D101B0913C
:10114000D201D62FD72316E0C81799F190E0109757
:1011500011F0DF3F19F401968770F6CF189F9001C8
:10116000199F300D1124F901E256FE4F41814713BA
:10117000F2CF40814613EFCF42814111ECCF438142
:1011800054814A1B5B0B483C510528F78091D301E1
:101190008F7080618093D301F901ED55FE4F8081FE
:1011A0008F70806180838EEC91E00E9497060E9490
:1011B0005808DF91CF911F910895A1E1B0E0E3EECF
:1011C000F8E00C94A3218C0185E0F801DE011D9666
:1011D00001900D928A95E1F7F801E2808EECC82E1D
:1011E00081E0D82E6091D1017091D2016115710515
:1011F00009F44EC19091CE012091CF01892F822315
:101200008F3F09F445C140815181A380B480F090A3
:10121000D001F501E61BF70BFF2009F4EAC080912D
:10122000D301382F307FE83CF10508F0A3C031111D
:101230006DC0FE2C251316C0941314C0E11012C00B
:101240008F7080618093D3010E947908C6010E944B
:1012500097068091D301F80185838F2D6196EAE08E
:101260000C94BF21A114B10429F0842F85238F3F52
:1012700009F027C180E0F82FF170DF2E80FF3CC01D
:1012800080919C0120919D0136E0821315C04D870D
:101290005E878D859E850E942A08292F22952F70B2
:1012A0002230F0F0243018F59F70F1F0F8019581AC
:1012B000907FD1F4D12C1EC090E0389FF001399F6F
:1012C000F00D1124E256FE4F6181651306C0608166
:1012D000641303C06281E6120FC001968770D5CFF8
:1012E0009F7011F0882331F3805E883018F3C801B5
:1012F0000E949706FD2CB1CFEE2009F4AECF80916D
:10130000D30181608093D301F12CA7CF251306C0B0
:10131000941304C0F801EE2009F487C0C8010E94AC
:10132000F706882319F1EE2009F18091D30180326C
:1013300070F02091CE013091CF0138872F8319862C
:10134000BB86AA868C87CE0107960E94970686E008
:10135000F801AEECB1E001900D928A95E1F70E94A0
:1013600088080E947908FF24F39477CFC8010E946F
:101370009706F9CF311113C07A2DB98AA88A6E2D3C
:1013800089890E94FF068EEC91E00E94970686E014
:10139000F60111928A95E9F70E947908B5CF2513D5
:1013A0000FC094130DC0E1100BC0F8018583C80174
:1013B0000E94970686E0F60111928A95E9F74DCFD3
:1013C000C8010E94F706882389F2EE2079F2809105
:1013D000D301803208F4BBCF2091CE013091CF01F0
:1013E0003A8329831B82BD82AC828E83CE01019613
:1013F000ACCFE83CF10508F03EC0FE2CEE2009F42D
:10140000B5CF25132AC0941328C08091D30180FD45
:101410001BC0982F907FC1F0F8018583903F31F079
:10142000982F907F905F8F70892B8583C8010E94D1
:10143000970686E0F801AEECB1E001900D928A9536
:10144000E1F70E94790809CF86E0F801AEECB1E03F
:1014500001900D928A95E1F700CFC8010E94F7062E
:10146000811175CF8091D30181608093D301C80130
:101470000E949706F2CE7A2DB98AA88A6E2D8989A4
:101480000E94FF0686E0F60111928A95E9F7D9CF0E
:10149000EE2009F46BCFC8010E94F706F82E8823CE
:1014A00009F464CF86E0F801AEECB1E001900D9252
:1014B0008A95E1F78EEC91E00E94DE030E94880895
:1014C000C0CF81E08E25D7CEACE0B0E0EAE6FAE00E
:1014D0000C94AA214F83588769877A878B879C87CA
:1014E000CE0107960E94DD08882369F08A859B85D6
:1014F000892B39F04F815885842F85238F3F09F040
:101500006BC016E05FC086E0FE013796DE011196E3
:1015100001900D928A95E1F78A859B85892B89F345
:101520008F81988589238F3F61F320919D0130E061
:10153000C90101968770992740919C0148171906A7
:1015400071F40E94D70610929D0110929C0186E0D2
:10155000EEECF1E0DF011D928A95E9F7D2CF96E03B
:10156000929FD001939FB00D1124A256BE4FFE0151
:10157000319601900D929A95E1F780939D010E941A
:101580005808BFCF819FC001112482569E4F0E94F0
:10159000DD088823E9F0E0919C011E9FF0011124F1
:1015A000E256FE4F40815181628173818481958131
:1015B0000E94090780919C0190E00196877099270D
:1015C00080939C0180919C0190919D018913DACFB9
:1015D0002C96E3E00C94C62169857A858B859C85E1
:1015E0000E9409078ECF682F809100019091010120
:1015F0000E94E9180895682F8091000190910101DF
:101600000E94EC18089580910001909101010E94C0
:10161000EF1808958091DC0185958595859508954D
:101620008091DC01877008959091DC01977081E0D2
:1016300009F480E008958091E70108959091E70111
:10164000892B8093E701089580959091E701982375
:101650009093E70108951092E70108959091E601B3
:10166000892B8093E601089580959091E601982357
:101670009093E60108951092E60108958091DD01AE
:10168000089508950E94410B089590911F0292FFC2
:1016900008C09091DD01981721F08093DD010E9430
:1016A000420B08958091DD01882329F01092DD011D
:1016B00080E00E94420B0895CF93DF93E0910001F8
:1016C000F09101018091E7018083E0910001F091A8
:1016D000010180819091E601892B80839091DD0149
:1016E000992381F0E0910001F09101018081892B23
:1016F000808380910001909101010E94A1188111C5
:101700000E94520BC0910001D091010148E050E0CD
:1017100064ED71E0CE010E94E621892B59F088E04A
:10172000FE01A4EDB1E001900D928A95E1F7CE01A2
:101730000E945C18DF91CF91089508950E949D0B3F
:10174000089590911F0292FF11C098E0899F900127
:101750001124622B6093DC010E944E078091DC0112
:101760008595859585950E949E0B08950E944E074C
:1017700008951092DC0180E00E949E0B08959091E4
:10178000DC01809589238093DC01282F277091F458
:10179000282F082E000C330B9217130659F0909146
:1017A0001F0292FF07C08595859585950E945A076F
:1017B0000E94B90B089590911F0292FB222720F9F5
:1017C000281769F080FB92F990931F0280911E0206
:1017D00090911F020E942D0C82E00E94BF0B089581
:1017E00080911F0282FB882780F991E089270E945F
:1017F000DB0B089581E00E94DB0B089580E00E94DE
:10180000DB0B08956FEF7FEF90E080E00E941F22D6
:10181000089590E080E00E94FB21883E9E4F19F4DD
:101820000E944E13089580E0089582E090E00E94A7
:10183000F321089583E090E00E94F3210895CF936F
:1018400084E090E00E94F321C82F82E290E00E94A1
:10185000F321982F8C2FCF910895CF93C92F682F04
:1018600084E090E00E9401226C2F82E290E00E94CE
:101870000122CF910895AB01BC018FE090E00E945E
:1018800013220895AB01BC0183E190E00E94132272
:10189000089560E070E0CB010E94420C089560E082
:1018A00070E0CB010E943B0C0E94490C089568EE49
:1018B0007EEF90E080E00E941F2260E082E090E0F6
:1018C0000E94012260E083E090E00E9401221092D9
:1018D0009B0160E084E090E00E94012264E082E2EB
:1018E00090E00E94012260E085E090E00E940122E9
:1018F00060E086E090E00E9401226FEF87E090E0D8
:101900000E94012240E050E0BA0188E090E00E948D
:10191000132260E08DE090E00E94012240E050E060
:10192000BA0188E190E00E94132260E087E190E034
:101930000E94012240E050E0BA018CE190E00E9458
:10194000132270E060E080E290E00E941F2240E0FD
:1019500050E0BA0188E190E00E94132280E00E94EA
:1019600067130E9496130E944F0C08950E94570C13
:101970000895682F8EE090E00E94012208950E9451
:10198000B1196093F0017093F1018093F20190938B
:10199000F3016093EC017093ED018093EE0190935D
:1019A000EF010895089508950E94D30C08950895B5
:1019B0000E94D70C089588E49FE00E9445180E9479
:1019C000D20C0E94D40C089581E008950E94E40C8A
:1019D0000895089508950E94E90C0E94EA0C089564
:1019E0000E94640F0E948B0308950E949C190E941C
:1019F000A6130E9426100E94F00C0E94D80C089595
:101A0000AAE0B0E0E6E0FDE00C94A2210E943C10C8
:101A1000C82E81110E94BF0C88EEA82E81E0B82E3E
:101A200010E000E0902E802F0E94870FE82EF50135
:101A3000F1905F01F816B9F18091F40181FD0E94E7
:101A40008D0F8F2D8E25D12CFF24F394982F9F215D
:101A500029F10E94E60C882399F0DE829F82EF2014
:101A600081E009F480E088870E94A5198160782FC1
:101A70009A8789874E815F8168858A850E94A9033C
:101A8000F801E851FE4F8081F826F08281E0C11014
:101A900001C080E02A96EBE00C94BE21D394FF0CA9
:101AA000F4E0DF12D3CF0F5F1F4F0430110509F0B0
:101AB000B9CF8FEF89838A831B820E94A519816029
:101AC000782F9D838C8349815A816B818D810E94FF
:101AD000A903DCCF0E94000D0E9452120E949E03B7
:101AE0000895CF93DF930E946E0EEC01811521E5DE
:101AF000920708F042C0811530E5930708F09DC0B9
:101B0000883E910530F5803E910508F092C0883AF4
:101B1000910588F4853A910508F084C081309105DB
:101B200009F487C0009709F484C0049708F081C0C5
:101B3000D0E0C0E07EC08F3B9105D0F7C85AD0E01E
:101B4000CC0FDD1FC85BDE4F0990D881C02DD46457
:101B500070C08115904250F4C11581E0D80708F09B
:101B600068C0C03FD10520F3D06563C0C11590E4C3
:101B7000D907F0F2DF70D06A5CC0811525E59207C5
:101B800000F5811534E5930708F08BC0811543E516
:101B9000940708F073C0C11582E5D80708F469C03E
:101BA000CE018370992721E030E002C0220F331F5D
:101BB0008A95E2F7C695C69580E2C89FE001112498
:101BC00054C0C11599E5D907A8F4C11528E5D20775
:101BD00008F06CC0C11536E5D30708F0A9CF8C2FEB
:101BE0000E94050FC82FD0E0DC2FCC27CC27DF7157
:101BF000D0621FC0C1154AE5D40708F45CC0CE010D
:101C000090568115904208F093CF8D2F8F710E94CE
:101C1000050F90E0982F882788279F719C012C2B17
:101C2000E901E6CFC55AD0E0CA58DE4FC881D0E0FE
:101C3000D064CE01DF91CF910895E4E09695879529
:101C4000EA95E1F783702C2F26952695237040E2C4
:101C5000249F90011124382B8C2F8370C1E0D0E099
:101C600002C0CC0FDD1F8A95E2F7C22BD32BDC68B4
:101C7000E0CFDC2FCC27C16FD06ADBCF83709927F0
:101C800021E030E002C0220F331F8A95E2F7C695AB
:101C9000C69590E2C99FE0011124C22BD32BDA68CC
:101CA000C8CFD82FCC27C46FD06AC3CFDC2FCC27A6
:101CB000C06FD06ABECF8C2F8F700E94050F34E0AA
:101CC000D695C7953A95E1F7CF709C2FEC01D06976
:101CD000B0CF0E94AE160E94710D08958238910512
:101CE000B1F1B0F48133910509F475C048F489323B
:101CF000910509F469C08A32910509F473C0089509
:101D00008533910509F459C08933910501F108958E
:101D1000833E9105A9F138F4803E9105F9F0823EA9
:101D2000910549F10895863E9105A9F1873E9105F7
:101D3000C9F1843E910519F520911F0221FF1FC0B2
:101D400080911E0284FD14C087EE90E008952091DA
:101D50001E022370A1F080EE90E0089520911E02F3
:101D600020FD47C030911F0230FF09C024FF44C04E
:101D700090E080E004C020911E0222FDF7CF08957C
:101D800020911E0222FD3BC030911F0230FDE3CFA7
:101D900024FFF5CFEDCF20911E0223FFF0CF24FDCD
:101DA000E7CFD2CF20911E0223FD2CC030911F021D
:101DB00031FFEECF84EE90E0089520911E0225FFC2
:101DC000DECF89E290E0089520911E0225FFD7CF53
:101DD00085E390E0089520911E0226FFD0CF8AE28D
:101DE00090E0089520911E0226FFC9CF81E390E084
:101DF000089589E390E0089583EE90E0089582EEDF
:101E000090E0089586EE90E0089590911E0292FF72
:101E100006C0282F28712830F9F4877F846093FF4B
:101E200006C0282F28712831F1F4877E8461209123
:101E30001F0220FF06C0382F38713830D9F4877F51
:101E4000816021FF06C0282F28712831D1F4877EB8
:101E5000816194FD877E0895282F24712430F9F63E
:101E60008B7F8860DCCF282F2471243101F78B7E93
:101E70008861DDCF382F3171313019F78E7F88605E
:101E8000E0CF282F2171213121F78E7E8861E1CFAB
:101E900080E008950E94020C08950E943C108FE398
:101EA0009CE90197F1F700C000000E943C1080E01F
:101EB0000E94870F80FF04C00E944A0F0E94F01901
:101EC00008950E944D0F08950E94090C811102C0CF
:101ED0000E94B60C0E94150C8093F4010E941F0C06
:101EE00090931F0280931E020E94610F0E941A0CA1
:101EF0000E941F0780919A010E9437070895089554
:101F00000E947F0F089508950E94830F0895E82F7F
:101F1000F0E0EC5DFD4F80810895089580EA8A9598
:101F2000F1F7089500C008950E948E0F0895F89467
:101F3000E82FE295EF70F0E031A1282F2F7081E0BB
:101F400090E001C0880F2A95EAF7982F9095932387
:101F500091A392A1892B82A37894089585E30E948E
:101F6000970F84E30E94970F86EC0E94970F87E9F2
:101F70000E94970F86E30E94970F82E30E94970FBB
:101F800083E30E94970F81E30E94970F0895B0E0CA
:101F9000A0E0EDECFFE00C94A521EC01D62E062F7D
:101FA00010E0C80183589E4F7C01FC0180818F3F67
:101FB00009F445C0F894E82FE295EF70F0E091A1A4
:101FC0008F7021E030E001C0220F8A95EAF7892F57
:101FD000822B81A382A12095282322A378940E949A
:101FE000920FE9E7F1E04DE751E031E0C12C21919A
:101FF0002F3F51F1A22FA295AF70B0E090968C9137
:1020000090E02F7002C0959587952A95E2F780FDA4
:102010001BC0832FC82A330F4E175F0741F7F70104
:1020200080818F3F11F00E94970F61E0C11001C0C5
:1020300060E08D2D0E94940FC00FD11FC882CDB7D4
:10204000DEB7E8E00C94C12180E0E4CF0E94AE0F3F
:1020500084E0E4E2F2E0DF01982F1D929A95E9F71F
:10206000E0E2F2E0DF011D928A95E9F784E00E9448
:1020700079100E9438020895A4E0B0E0E2E4F0E1B3
:102080000C94AA2119821A821B821C8210E0612FF3
:10209000CE0101960E94C70F1F5F1430C1F744E0C4
:1020A00050E0BE016F5F7F4F80E292E00E94E62128
:1020B00011E0009709F410E0892B61F089819A8181
:1020C000AB81BC818093200290932102A0932202D5
:1020D000B0932302212F44E064E272E080E292E0B8
:1020E0000E947A100E943B02812F2496E3E00C9418
:1020F000C6210895FF920F931F93CF93DF93F82E7D
:10210000092F162FD72FC42F222349F081E0809367
:10211000F7010E94A5199093F6018093F501809133
:10212000F7018823A1F08091F5019091F6010E94BA
:10213000BD19059760F0EF2DF02FA12FBD2FCE0F09
:10214000DF2FD11DEC17FD0739F41092F701CDB741
:10215000DEB7E5E00C94C42181918D93F3CF0E940A
:10216000D91B0E94F50C0E94E61B08950E94EB1BF0
:102170000E946A0D0E94051C08950E943E190E944B
:10218000BF1B0E94DB0C0E94AF100E94B6100E9481
:10219000EB0CFBCF8091FE0180FF0DC06091070129
:1021A00070E0660F771F6038710570F56115710575
:1021B00069F1862F089581FF07C06091070184E0CF
:1021C000689FB0011124EFCF6091070182FD0AC022
:1021D0008091FD018823A9F02091060160910701FB
:1021E000821710F088E0ECCF869FC001112433E005
:1021F000880F991F3A95E1F7622F70E00E947A21CB
:10220000D2CF68E070E0D5CF8FE7089581E00895E0
:102210008091FE0180FF0CC06091030170E0759514
:102220006795759567956115710549F1862F089534
:1022300081FF06C06091030170E075956795F3CF4B
:102240006091030182FD0BC09091FC019923A1F0E4
:102250006091020180910301961738F0682F70E0B9
:102260006038710500F38FE70895899FC00111243C
:1022700070E00E947A21F4CF61E070E0D7CF81E076
:102280000895803F31F40E94CA1081958093020224
:102290000895813F19F40E94CA10F8CF823F31F4AB
:1022A0000E94CA108195809301020895833F19F41A
:1022B0000E94CA10F8CF893F29F40E940811809328
:1022C000030208958A3F21F40E9408118195F7CFF7
:1022D0008B3F31F40E940811819580930402089588
:1022E0008C3F19F40E940811F8CF9CE0980F9530AC
:1022F00070F4845F990B21E030E001C0220F8A95D1
:10230000EAF780910002822B8093000208958D3FAE
:1023100031F48091FE0181608093FE0108958E3F2B
:1023200021F48091FE018260F7CF8F3FB9F7809151
:10233000FE018460F1CF40910102803F59F4809109
:10234000020287FF0DC01092020241110BC01092D1
:10235000FD0108C0813F81F48091020218169CF3B0
:10236000442381F08091030290910402892B09F0AB
:102370005AC01092FC010895823F49F447FFF0CF04
:1023800010920102809102028111ECCFE0CF833FD5
:1023900019F41416ACF3E4CF90910302893F29F4A9
:1023A0001916F4F610920302DBCF8A3F19F497FF57
:1023B000D7CFF8CF909104028B3F29F497FFD0CF6D
:1023C00010920402CDCF8C3F19F41916CCF3C8CF6C
:1023D0009CE0980F953090F4845F990B21E030E0F9
:1023E000B90102C0660F771F8A95E2F7CB0180958D
:1023F00090910002892380930002B2CF8D3F31F487
:102400008091FE018E7F8093FE01AACF8E3F21F442
:102410008091FE018D7FF7CF8F3F09F0A1CF809192
:10242000FE018B7FF0CF08950E94A5199C01909129
:10243000010280910202982B21F03093FB0120933E
:10244000FA019091030280910402982B21F03093BD
:10245000F9012093F8018FEF91E00E946718089529
:1024600086E0EFEFF1E0DF011D928A95E9F7109227
:10247000FD011092FC011092FE010895FC01828181
:1024800081110EC0838181110BC08481811108C02C
:1024900091E08581811101C090E0892F81700895BC
:1024A00081E0FCCFA6E0B0E0E8E5F2E10C94AA21DF
:1024B00086E0EFEFF1E0DE01119601900D928A9532
:1024C000E1F71092010210920202109203021092A0
:1024D00004028B819C81892B89F08091FA01909173
:1024E000FB010E94BD19AC019091FD019923C9F136
:1024F000809108018417150608F440C08D819E81E3
:10250000892B91F08091F8019091F9010E94BD19F9
:10251000AC019091FC01992309F471C080910401F0
:102520008417150608F479C0BE016F5F7F4F8FEFE7
:1025300091E00E94F618811105C08FEF91E00E9492
:102540003E1281110E94141286E0FE013196AFEF17
:10255000B1E001900D928A95E1F72696E3E00C94A4
:10256000C621209109018AE0289F90011124241797
:10257000350720F69F5F9093FD0102C09F3FD1F782
:102580001B81112359F00E94CA109FEF11160CF401
:1025900091E0899F802D1124809301021C811123D9
:1025A00059F00E94CA109FEF11160CF491E0899F18
:1025B000802D11248093020230910102332309F40B
:1025C0009DCF20910202222309F498CF45EB3403DA
:1025D000C0011124992359F09093010245EB240383
:1025E00090011124332339F03093020287CF81E028
:1025F00080930102F3CF81E0809302027FCF20918C
:1026000005018AE0289F900111242417350708F05E
:102610008BCF9F5F9093FC0102C09F3FD1F71D813C
:10262000112359F00E9408119FEF11160CF491E04C
:10263000899F802D1124809303021E81112359F05C
:102640000E9408119FEF11160CF491E0899F802DD4
:1026500011248093040230910302332309F464CFE0
:1026600020910402222309F45FCF45EB3403C0011B
:102670001124992359F09093030245EB2403900110
:102680001124332339F0309304024ECF81E080933C
:102690000302F3CF81E08093040246CF83E290E00F
:1026A0000E94F321823289F484E290E00E94F321B7
:1026B000893059F485E290E00E94F32191E0853061
:1026C00009F090E0892F8170089580E0FCCFCF93CE
:1026D000C82F6FEF811162E283E290E00E94012235
:1026E0006FEFC11169E084E290E00E9401226FEF78
:1026F000C11165E085E290E00E940122CF9108952A
:10270000089586E290E00E94F321682F70E090E047
:1027100080E008950895CF93C62F0E948A136C2FEE
:1027200086E290E00E940122CF91089580E00E940D
:10273000671360E070E0CB010E948B130E9430169B
:102740000E940B1781E00E94671308950E94801376
:102750000E9481130E948A130E944E13811102C0AD
:102760000E9496130895CF93FB01C281CC2309F1F7
:102770009C0122513F452031310520F582510E94B4
:102780001B17C0E08C2FCF91089581E00E944E0767
:1027900043E062E081E00E942E02F3CF81E00E94DC
:1027A0005A0743E062E081E00E942E02EBCF82E014
:1027B000F6CF8031FFE59F0789F381319F45B9F35B
:1027C000C1E0E0CF8031EFE59E07F9F281319F450E
:1027D000C9F682E0DBCF2FEFFC0120830895EF9252
:1027E000FF920F931F93CF93DF93EC01062FE881A5
:1027F000E150E33108F05DC0F0E0ED5BFD4D0C947D
:102800008E21198289E08A83602FCE010E94921A5C
:10281000CDB7DEB7E6E00C94C3218981823069F040
:10282000833071F08130D9F40E94B1190E94942153
:102830006A837B838C839D83E7CF0E948113F6CFCD
:102840007E0182E0E80EF11C10E0812F0E94870FCC
:10285000F70181937F011F5F1430B9F7D5CF602F47
:10286000CE010E94EB13D0CF89818230C1F76A81FB
:102870007B818C819D810E9494210E948B13C4CF07
:102880004B816A8189810E94F215982789279827B0
:102890009D838C83B9CF2C813D813227232732271A
:1028A0004B816A8189810E941416AECF0E94301636
:1028B000ABCF8FEF8883A8CF0E94BC168983A4CFAB
:1028C0000E94BE169827892798279A8389839CCFD0
:1028D0006B8170E089819A81AE014C5F5F4F9827D0
:1028E000892798270E94C1168FCF6B8170E089815C
:1028F0009A81AE014C5F5F4F9827892798270E94E5
:10290000E61682CF0E940B177FCF0E94DF15D6CF2D
:102910006B8170E089819A81AE014C5F5F4F98278F
:10292000892798270E9468166FCF6B8170E0898194
:102930009A81AE014C5F5F4F9827892798270E94A4
:102940008B1662CFCF93DF93EC01FB01828188234A
:1029500009F433C1C330FDE5DF07C0F5CA3F9CE58C
:10296000D90730F49E0122503C4524313105B0F5A1
:102970000E941F0C90931F0280931E02C1318CE5B0
:10298000D80709F4EEC008F069C0C930ECE5DE07ED
:1029900009F4D5C0C8F5C5308CE5D80709F4C7C01F
:1029A00000F5C330ECE5DE0709F4B9C008F0BBC0A0
:1029B000C230DC4509F4ADC080911E0290911F0227
:1029C0000E942D0C0E94D70680E008C0C136EDE5BC
:1029D000DE0771F2C53AFDE5DF0751F2DF91CF91D5
:1029E000089580911E028062C7309CE5D90709F4E2
:1029F00093C080911E028061C830DC4508F48CC011
:102A000080911E02806488C080911E028B7FCD3031
:102A1000FCE5DF0709F480C098F480911E028E7FE8
:102A2000CB309CE5D90709F477C080911E028C60F9
:102A3000CC30DC4508F470C080911E028D7F6CC0E4
:102A400080911E028F7ECF30FCE5DF0709F464C061
:102A500008F47BC080911E028F7D5EC0CD3F9CE557
:102A6000D90709F47AC050F5C531FCE5DF0709F450
:102A700086C098F480911E02837FC3319CE5D907FC
:102A800009F44AC008F471C00E94D70690911E0252
:102A9000892F97FB87F980583FC0CB3FFCE5DF07C4
:102AA00009F449C008F055C080911F028160CA3FF7
:102AB000DC4509F081CF80931F027ECFC130EDE568
:102AC000DE0709F468C0A8F4CF3F8CE5D80709F405
:102AD00052C080911F028360C115DD4560F3809173
:102AE0001F02982F909591708E7F892B90FB81F912
:102AF000E2CFC136EDE5DE0709F451C0C53AFDE588
:102B0000DF0709F453C0C230DD4509F055CF80E03E
:102B100043C080911E02816080931E024DCF809140
:102B20001E028260F9CF80911E028460F5CF8091F1
:102B30001E028860F1CF80911F028260BCCF0E948C
:102B4000D70680911E028068E7CF80911E02877FA2
:102B5000E3CF80911F028E7FAECF80911F028D7FC9
:102B6000AACF80911E028F7BD7CF0E94D70680917B
:102B70001E028F77D1CF80911F028C7F9CCF8091D6
:102B80001E0282FB992790F921E0922790FB82F99F
:102B900090FB83F9C1CF81E00E94B90C0DCF9091D9
:102BA0001E02892F8F7E94FF8061B6CF90911E0206
:102BB000892F8E7F90FF8160AFCF81E00FCF84E0BF
:102BC000089528E0629FB001112450E0440F551F82
:102BD000640F751F20E2829FC0011124860F971F8A
:102BE000879608950F931F93CF93DF938430C8F493
:102BF0006430B8F44430A8F40E94E1158C010E94BE
:102C0000F321C82FD0E0DC2FCC27C80101960E9409
:102C1000F3219E01282BC901DF91CF911F910F91C4
:102C2000089590E080E0F8CF0F931F93CF93DF9348
:102C3000122F032F843078F4643068F4443058F451
:102C40000E94E115EC01602F0E940122612FCE014C
:102C500001960E940122DF91CF911F910F9108955B
:102C6000AF92BF92CF92DF92EF92FF921F93CF93DA
:102C7000DF938CEAC82E80E0D82ED0E07601C0E049
:102C800014C0F50125913491412F6C2F8D2F0E9496
:102C9000141682E0A80EB11C1F5F143091F788E073
:102CA000E80EF11CCF5FC43019F0570110E0E9CFF6
:102CB000DF5F80E2C80ED11CD43001F7DF91CF91E5
:102CC0001F91FF90EF90DF90CF90BF90AF9008954D
:102CD000EF92FF920F931F93CF93DF93EC018A0142
:102CE0007C01E60EF71ECE018796CE15DF0529F48E
:102CF000CDB7DEB7E6E00C94C321C038D10540F46F
:102D00000E94F321F80180830F5F1F4F2196EBCFC4
:102D1000F8011082F9CFB0E0A0E0E1E9F6E10C940F
:102D2000A5217C016A018C01060F171FEC01CE0161
:102D30008796C017D10729F4CDB7DEB7E8E00C9429
:102D4000C121C038D10540F4FE01EE19FF09EC0D98
:102D5000FD1D60810E9401222196E9CF462F84301B
:102D600040F4743030F4643020F4672F0E94F21580
:102D7000089590E080E0089580E1089589E593E06A
:102D80000895EF92FF920F931F93CF93DF93EC017F
:102D90008A017C01E60EF71ECE0189559F4FCE15A4
:102DA000DF0529F4CDB7DEB7E6E00C94C321C935C1
:102DB00023E0D20740F40E94F321F80180830F5FE3
:102DC0001F4F2196E9CFF8011082F9CFB0E0A0E0C3
:102DD000ECEEF6E10C94A5217C016A018C01060F52
:102DE000171FEC01CE0189559F4FC017D10729F459
:102DF000CDB7DEB7E8E00C94C121C93523E0D20796
:102E000040F4FE01EE19FF09EC0DFD1D60810E94EA
:102E100001222196E7CFCF93DF93C7EAD0E060E0AD
:102E2000CE010E9401222196C11584E0D807B9F78E
:102E3000DF91CF910895A4E0B0E0E1E2F7E10C94D6
:102E4000A621F82E8FE08F1548F18FEF93E00E94B6
:102E5000F321811123C007EA10E0F11023C0198289
:102E60001A821B821C82DD24D39478018FEFE81A2A
:102E7000F80AC8010E94F32189831A82882371F01D
:102E80009FEF980F9330D8F48A83D9820E5F1F4F3B
:102E9000C7010E94F3218B83811112C02496E7E0C1
:102EA0000C94C221011584E01807C1F3C8010E94E7
:102EB000F321811101C0FA940F5F1F4FCECF87011C
:102EC000CE0101960E947E03D0CFCF93DF93EB011A
:102ED00086319C4511F50E941B0B9A81992399F02C
:102EE0008A7A91E009F490E090930502811109C07B
:102EF00089E20E94F30A0E945C0B80E0DF91CF918F
:102F0000089585E3F6CF80910502811104C089E21E
:102F10000E94FB0AF0CF85E3FBCF81E0EFCF0F9358
:102F20001F93CF93DF93C42FD22FFC01828188237C
:102F3000C9F0409308020E94A5199093070280935C
:102F4000060280E28C0F883040F4C77081E001C037
:102F5000880FCA95EAF70E948304DF91CF911F91F1
:102F60000F91089510910802141332C08091060247
:102F7000909107020E94BD19883C910548F5C0E276
:102F8000CD0F1D17B9F080E2810F883040F4177023
:102F900081E001C0880F1A95EAF70E948A04C830C0
:102FA00048F481E09D2F977001C0880F9A95EAF749
:102FB0000E948304802F0E947A04C83070F6D77074
:102FC00081E001C0880FDA95EAF70E948A04C5CF34
:102FD00080E28C0F883008F6C77081E001C0880F4E
:102FE000CA95EAF7F2CF0F939C01CB01233F4CE542
:102FF000340759F1A8F4283DFCE53F0701F1293DCC
:103000004CE53407D1F1273D3C4591F406E221EE31
:1030100041EE67ED7CE50E948F1780E00F910895E7
:10302000253FFCE53F07E9F0B0F0263F3C45F9F0CD
:10303000FC018281882339F110920802EFCF07E268
:1030400025EE45EE68ED7CE5E6CF06E221EE40EEAA
:1030500063EF7CE5E0CF07E225EE44EE64EF7CE52C
:10306000DACF06E221EE42EE65EF7CE5D4CF07E24F
:1030700025EE46EE66EF7CE5CECF08E221E045EE98
:1030800069ED7CE5C8CF81E0C9CF90939101809331
:103090009001089590930E0280930D020895E0919F
:1030A0000D02F0910E02309729F00190F081E02D91
:1030B0000995089580E00895E0910D02F0910E02C7
:1030C000309721F00280F381E02D09950895E09179
:1030D0000D02F0910E02309739F022E0DC012C93C2
:1030E0000480F581E02D0995089520910B0230911F
:1030F0000C022817390771F090930C0280930B0291
:10310000E0910D02F0910E02309721F00680F781D8
:10311000E02D099508952091090230910A0228179F
:10312000390771F090930A0280930902E0910D0231
:10313000F0910E02309721F00084F185E02D099581
:1031400008959C012E5F3F4FAC01485F5F4F80E0C8
:103150002417350709F40895F90191919F019923E6
:10316000B9F38F5FF5CF662349F0FC0132960896DC
:103170002191261729F0E817F907D1F780E0089583
:1031800081E008959C01FC0132969FEF80E041911F
:10319000461751F09F3F19F4411101C0982F8F5FDE
:1031A0008630A9F79F3F09F40895290F311D97FD37
:1031B0003A95F90162830895FC01329608962191AF
:1031C000261303C0DF0111971C92E817F907B9F71E
:1031D00008950E94C21808950E94DC18089502966E
:1031E00026E0FC0111922A95E9F7089546E050E0A7
:1031F0000E94E62121E0892B09F420E0822F089526
:1032000008950E9400190895811106C081E08093FD
:103210000F020E940119089582E0F9CF83E08093A4
:103220000F020E94011908950E940419089581E077
:1032300080930F020E94011908950E9417190895A2
:10324000089508950E9421190895089508950E94EF
:1032500020190895CF930E9425190E943C100E94C6
:103260002619C0E08C2F0E94870F811105C0CF5F07
:10327000C430C1F7CF91089581E0FCCF85B7806855
:1032800085BF85B7806885BF08951F921FB61F92BE
:1032900011248F939F93AF93BF938091100281115C
:1032A00013C08091280290912902A0912A02B09126
:1032B0002B024196A11DB11D8093280290932902F3
:1032C000A0932A02B0932B02BF91AF919F918F914F
:1032D0001F901FBE1F90189580913002843031F1ED
:1032E0000E94B1021092100288E190E020E40FB633
:1032F000F894A895809360000FBE2093600083B778
:10330000817F846083BF83B7816083BF7894889511
:1033100083B78E7F83BF0FB6F894A8958091600025
:10332000886180936000109260000FBE08950E9433
:10333000D7060E94B602089582E084BD93E095BD51
:103340009AEF97BD80936E0008952FB7F8948091FF
:10335000280290912902A0912A02B0912B022FBF3E
:1033600008952FB7F89460912802709129028091F6
:103370002A0290912B022FBF08959C014FB7F89419
:103380008091280290912902A0912A02B0912B02EB
:103390004FBF821B930B089578941F921FB61F9204
:1033A00011248F939F93AF93BF93809128029091A4
:1033B0002902A0912A02B0912B020196A11DB11DF4
:1033C0008093280290932902A0932A02B0932B02A3
:1033D000BF91AF919F918F911F901FBE1F90189525
:1033E00087E797E7909301088093000888E19AE0C7
:1033F0000FB6F894A895809360000FBE909360007C
:10340000FFCF88E19AE00FB6F894A895809360000A
:103410000FBE90936000FFCF80911C020895089525
:103420009C0184E08093E9009FEF8091E800915037
:1034300085FD06C085ED8A95F1F700009111F5CF65
:103440008091E80085FF0CC050E040E066E070E04D
:10345000C9010E94A41C8091E8008E778093E80047
:103460000895CF93DF93EC0181E08093E9008FEF23
:103470009091E800815095FD06C095ED9A95F1F781
:1034800000008111F5CF8091E80085FF14C050E065
:1034900040E068E070E0CE010E94A41C8091E8004A
:1034A0008E778093E80088E0FE01A4E1B2E001900D
:1034B0000D928A95E1F7DF91CF91089580931102E3
:1034C0007093130260931202809130028430F9F4F9
:1034D0008093E9008FEF9091E800815095FD06C040
:1034E00095ED9A95F1F700008111F5CF8091E800F4
:1034F00085FF0DC050E040E063E070E081E192E0C4
:103500000E94A41C8091E8008E778093E8000895C3
:10351000BC0184E00E945E1A0895BC0183E00E9411
:103520005E1A0895CF93FC01603221F5809130023C
:10353000843001F5C091E900CF702091EC00922F0A
:10354000917020FD90E8C92B82E08093E900809182
:10355000E80080FF0CC050E040E060E270E0CF0186
:103560000E94A41C8091E8008E778093E800CF70C1
:10357000C093E900CF91089580912F02811109C075
:103580000E94831E0E94E01E8091E200846080936E
:10359000E200089510922F0208950E9417190895CD
:1035A00060912C0281E0611101C080E00E940E193F
:1035B00008959091300281E0943009F080E06091AC
:1035C0002C020E941419089542E061EC81E00E94EF
:1035D000FF1D42E261EC84E00E94FF1D42E261ECCB
:1035E00082E00E94FF1D42E260EC83E00E94FF1D2A
:1035F0009091300281E0943009F080E060912C02DB
:103600000E940419089580913202833009F463C046
:1036100030F48130E1F1823009F4A0C008958A309D
:1036200009F48CC08B3009F471C0893009F052C0A4
:1036300080913102813209F04DC080913502909124
:103640003602009719F0029709F044C08091E80013
:10365000877F8093E8008091E80082FF37C09091D7
:10366000F3008091F200029731F48091F1008130F3
:1036700011F0863021F48091F10080931C0280913A
:10368000E8008B778093E8000E94331E23C080916E
:103690003102813AF9F48091E800877F8093E80055
:1036A0008091350290913602892B61F468E084E1C3
:1036B00092E070E00E94421D8091E8008B77809339
:1036C000E800089560E090E080E0F3CF8091300260
:1036D0008111C1CF089580913102813AD9F780914B
:1036E000350290913602892BA9F78091E800877FF7
:1036F0008093E8008091E80080FFFCCF8091160164
:103700008093F1008091E8008E77BCCF80913102E8
:10371000813201F78091350290913602892BD1F6E2
:103720008091E800877F8093E8000E94331E80919B
:103730003302809316010E94D706089580913102CA
:10374000813241F68091E800877F8093E8000E94F3
:10375000331E8091340280931D02089580913102BE
:10376000813A09F0B7CF8091E800877F8093E80025
:103770008091E80080FFFCCF80911D02C1CF84B70B
:10378000877F84BF0FB6F894A89580916000886108
:1037900080936000109260000FBE80E890E00FB64A
:1037A000F89480936100909361000FBE0E941D19F0
:1037B00008950E94831E0E94E01EE2EEF0E08081E8
:1037C0008460808378940E945F2108958AE091E06C
:1037D0000E944A18089580913002853031F480911A
:1037E0003002853019F00E94971908950E946C19D3
:1037F00080912E02882399F30E942A19882379F355
:103800000E948E1C0E94D706EACFA0E2B0E0EBE057
:10381000FCE10C94AB2180913002843009F583E007
:103820008093E9008091E80082FF1AC08091E8004F
:1038300090E085FF09C050E040E060E270E0CE011A
:1038400001960E94F31C91E08091E8008B778093B1
:10385000E800992329F060E2CE0101960E94EF135F
:10386000A096E2E00C94C7210E94371C0895292FEE
:1038700033272330310521F168F42130310509F473
:1038800043C02230310509F444C090E080E030E0CC
:1038900020E026C02132310551F122323105A9F74D
:1038A0006330710590F7FB01EE0FFF1FEC57FE4FE1
:1038B000208131816F577E4FFB01808190E010C0E5
:1038C00099278130910581F0009729F00297E9F658
:1038D000ECEDF1E002C0E8EFF1E0849190E09F01AF
:1038E000FA01318320830895E8EEF1E0F6CF6330EA
:1038F000710558F6660F771FFB01E657FE4F2081D2
:10390000318189E090E0ECCF82E190E027E532E080
:10391000E7CF8BE590E02CEF31E0E2CF80E189BD8D
:1039200082E189BD09B400FEFDCF8091D8008F7D72
:103930008093D8008091E00082608093E0008091C5
:10394000E00081FDFCCF0895AF92BF92CF92DF924D
:10395000FF920F931F93CF93DF936C01EB018A01CA
:103960000E94521EF82E811123C00115110539F055
:10397000F80180819181C81BD90BC80ED91EB12CCA
:10398000A12C2097A9F08091E80085FD22C08091AC
:10399000E8008E778093E80001151105A1F0F80189
:1039A00080819181A80EB91EB182A08285E0F82E97
:1039B0008F2DDF91CF911F910F91FF90DF90CF90CE
:1039C000BF90AF9008950E94521E8823D1F2F82E26
:1039D000EFCFF60181916F018093F1002197FFEF06
:1039E000AF1ABF0ACECFAF92BF92CF92DF92FF92B3
:1039F0000F931F93CF93DF936C01EB018A010E9419
:103A0000521EF82E811123C00115110539F0F8015D
:103A100080819181C81BD90BC80ED91EB12CA12C55
:103A20002097A9F08091E80085FD22C08091E800F0
:103A30008B778093E80001151105A1F0F8018081D2
:103A40009181A80EB91EB182A08285E0F82E8F2D3B
:103A5000DF91CF911F910F91FF90DF90CF90BF909A
:103A6000AF9008950E94521E8823D1F2F82EEFCF16
:103A70008091F100F60181936F012197FFEFAF1A5A
:103A8000BF0ACECFFC018091370290913802861791
:103A90009707A0F06115710529F49091E8009E77D1
:103AA0009093E80090E06115710551F4911108C000
:103AB0008091E80082FF34C080E00895BC01F2CF1D
:103AC000809130028823C1F18530C1F18091E800F6
:103AD00083FD30C08091E80082FDEACF8091E8004C
:103AE00080FFE1CF8091F3002091F200382F611523
:103AF000710519F02830310558F091E02830310572
:103B000009F090E02091E8002E772093E800CBCFD9
:103B100081918093F100615071092F5F3F4FE7CF92
:103B200080913002882341F0853041F08091E80097
:103B300083FFBECF81E0089582E0089583E0089579
:103B4000FC01809137029091380286179707A0F008
:103B50006115710529F48091E8008E778093E80063
:103B600090E06115710551F4911108C08091E80051
:103B700082FF35C080E00895BC01F2CF8091300211
:103B80008823C9F18530C9F18091E80083FD31C0F7
:103B90008091E80082FDEACF8091E80080FFE1CFCC
:103BA0008091F3002091F200382F6115710519F012
:103BB0002830310558F091E02830310509F090E0C7
:103BC0008091E8008E778093E800CBCF849180933A
:103BD000F1003196615071092F5F3F4FE6CF809120
:103BE0003002882341F0853041F08091E80083FF66
:103BF000BDCF81E0089582E0089583E00895982F75
:103C0000973028F08F708093E90081E008959093B9
:103C1000E900242F762F50E0981731F07091EC00D6
:103C20002091ED005091F00021FD02C09F5FE8CF90
:103C30003091EB003E7F3093EB003091ED003D7F03
:103C40003093ED003091EB0031603093EB007093D6
:103C5000EC002093ED005093F0002091EE0027FD42
:103C6000E5CF80E008958091310287FF13C08091F5
:103C7000E80082FF06C08091E8008B778093E8001F
:103C800004C0809130028111F2CF089580913002FA
:103C90008823D9F38091E80080FFF8CF8091E80075
:103CA0008E77ECCF2091E4003091E50095E6A901F4
:103CB0002091EC00822F817020FF06C08091E800E7
:103CC00080FF06C080E008952091E80022FD1AC020
:103CD00080913002882389F0853089F08091EB0053
:103CE00085FD0FC02091E4003091E5004217530795
:103CF000F9F29150E1F684E0089582E0089583E0BE
:103D0000089581E008950E94F21E0E94FA1EE0EEDE
:103D1000F0E0808181608083E8EDF0E080818F7742
:103D2000808319BCA7EDB0E08C918E7F8C9380814D
:103D30008F7E808310922F0208950F931F93CF934D
:103D4000DF930E94F21E0E94FA1EC8EDD0E0888127
:103D50008F77888388818068888388818F7D888336
:103D600019BC1092300210922C0210922E02109266
:103D70002D0200EE10E0F80180818B7F8083888126
:103D80008160888342E060E080E00E94FF1DE1EEF8
:103D9000F0E080818E7F8083E2EEF0E080818160C0
:103DA0008083808188608083F80180818E7F80831A
:103DB000888180618883DF91CF911F910F91089551
:103DC000E8EDF0E080818F7E8083E7EDF0E0808198
:103DD0008160808384E082BF81E080932F020E9413
:103DE0009D1E0895E8EDF0E080818E7F8083109223
:103DF000E20008951092DA001092E10008951F92F7
:103E00000F920FB60F9211242F933F934F935F930E
:103E10006F937F938F939F93AF93BF93EF93FF9392
:103E20008091E10082FF0BC08091E20082FF07C019
:103E30008091E1008B7F8093E1000E945E21809160
:103E4000DA0080FF19C08091D80080FF15C08091F2
:103E5000DA008E7F8093DA008091D90080FF96C0CF
:103E600080E189BD82E189BD09B400FEFDCF81E01A
:103E7000809330020E94BC1A8091E10080FF19C03B
:103E80008091E20080FF15C08091E2008E7F8093D8
:103E9000E2008091E20080618093E2008091D8008E
:103EA00080628093D80019BC85E0809330020E9424
:103EB000D01A8091E10084FF2BC08091E20084FF42
:103EC00027C080E189BD82E189BD89B5982F9170B5
:103ED00080FFFBCF8091D8008F7D8093D8008091A8
:103EE000E1008F7E8093E1008091E2008F7E8093DD
:103EF000E2008091E20081608093E20080912C02D8
:103F0000882309F449C084E0809330020E94D91AC2
:103F10008091E10083FF29C08091E20083FF25C0EA
:103F20008091E100877F8093E10082E080933002FE
:103F300010922C028091E1008E7F8093E1008091AD
:103F4000E2008E7F8093E2008091E20080618093A6
:103F5000E20042E060E080E00E94FF1D8091F000FE
:103F600088608093F0000E94CD1AFF91EF91BF917D
:103F7000AF919F918F917F916F915F914F913F9101
:103F80002F910F900FBE0F901F90189519BC109293
:103F900030020E94CA1A70CF8091E30087FD93E03F
:103FA00090933002B3CF1F920F920FB60F9211244D
:103FB0002F933F934F935F936F937F938F939F9331
:103FC000AF93BF93CF93DF93EF93FF93D091E9002B
:103FD000DF708091EC00C82FC17080FDC0E81092A6
:103FE000E9008091F000877F8093F00078940E9430
:103FF00017201092E9008091F00088608093F00013
:10400000CD2BCF70C093E900FF91EF91DF91CF915D
:10401000BF91AF919F918F917F916F915F914F91E0
:104020003F912F910F900FBE0F901F901895AAE20D
:10403000B0E0EDE1F0E20C94AA2181E392E020915E
:10404000F100FC012193CF01F2E089339F07B9F71A
:104050000E94031B8091E80083FF1EC18091310202
:10406000909132029A3008F017C1E92FF0E0EA5A35
:10407000FD4D0C948E21803899F0823809F00CC1E6
:10408000809135028F70873008F006C18093E90077
:104090008091EB0085FB882780F91092E90006C02B
:1040A00080912D0290912E02911182609091E800F2
:1040B000977F9093E8008093F1001092F100809137
:1040C000E8008E77E5C0882309F4D3C0823009F078
:1040D000E3C0809133028111D6C0809135028F7088
:1040E0002FEF280F263008F0D7C08093E9002091E9
:1040F000EB0020FFC8C0933031F48091EB00806268
:104100008093EB00C0C09091EB0090619093EB0026
:1041100021E030E001C0220F8A95EAF72093EA00FF
:104120001092EA008091EB008860EACF8111B4C060
:10413000109133021F778091E3008078812B809368
:10414000E3008091E800877F8093E8000E94331E9F
:104150008091E80080FFFCCF8091E300806880932D
:10416000E30082E0111183E08093300295C0805813
:10417000823008F091C080913302909134028C3DDE
:1041800023E09207A1F583E08A838AE289834FB70F
:10419000F894DE01139620E03EE051E2E32FF0E0D8
:1041A00050935700E49120FF03C0E295EF703F5F0A
:1041B000EF708E2F90E0EA30C0F0C7968D939D93FC
:1041C0002F5F243159F74FBF8091E800877F80939C
:1041D000E8006AE270E0CE0101960E94421D8091E3
:1041E000E8008B778093E80057C0C096E7CF6091D6
:1041F000350270913602AE014F5F5F4F0E94341C52
:10420000BC01892B09F448C09091E800977F9093F6
:10421000E80089819A810E94A01DE1CF8038E1F5F4
:104220008091E800877F8093E80080912C02809342
:10423000F10045CF811130C090913302923060F58A
:104240008091E800877F8093E80090932C020E9481
:10425000331E80912C02882311F084E005C08091E8
:10426000E30087FDFACF81E0809330020E94E41AD8
:1042700013C080913302813079F481E0933009F0EA
:1042800080E080932E021092E9008091E800877F01
:104290008093E8000E94331E8091E80083FF0AC0EB
:1042A0008091E800877F8093E8008091EB00806236
:1042B0008093EB00AA96E3E00C94C6210895CF9377
:1042C000809130028823A1F0C091E900CF709091D5
:1042D000EC00892F817090FD80E8C82B1092E900D6
:1042E0008091E80083FD0E941720CF70C093E90001
:1042F000CF91089597FB072E16F4009407D077FD11
:1043000009D00E94D22107FC05D03EF490958195FA
:104310009F4F0895709561957F4F0895EE0FFF1F91
:104320000590F491E02D099469279627692778274D
:104330008727782708952F923F924F925F926F922E
:104340007F928F929F92AF92BF92CF92DF92EF9225
:10435000FF920F931F93CF93DF93CDB7DEB7CA1BA6
:10436000DB0B0FB6F894DEBF0FBECDBF09942A88D1
:10437000398848885F846E847D848C849B84AA8479
:10438000B984C884DF80EE80FD800C811B81AA8106
:10439000B981CE0FD11D0FB6F894DEBF0FBECDBFD1
:1043A000ED010895AA1BBB1B51E107C0AA1FBB1F4B
:1043B000A617B70710F0A61BB70B881F991F5A95B1
:1043C000A9F780959095BC01CD010895FB01DC0112
:1043D00004C08D910190801921F441505040C8F7DC
:1043E000881B990B0895F999FECF92BD81BDF89A6B
:1043F000992780B50895A8E1B0E042E050E00C9420
:104400002722262FF999FECF92BD81BDF89A0197F8
:1044100000B4021639F01FBA20BD0FB6F894FA9A0C
:10442000F99A0FBE08950396272F0E9402220E9438
:104430000122252F0E940222242F0C940222019691
:10444000272F0E9402220C940122DC01CB01FC01E7
:10445000F999FECF06C0F2BDE1BDF89A319600B4DD
:104460000D9241505040B8F70895F894FFCFCC0416
:10447000CC04FD04FD048A05A6052C052C05B10518
:1044800018062706270601140D14341440144B1483
:104490005614591459145914591459145C146014AD
:1044A0006814751482148514881495143B206320B5
:1044B0004C2163204C219620B7204C210E211A213B
:1044C000DE01280850011E0A14010C1A311A101AB4
:1044D0008D1A881A0F1A01E200E900EA00B500B649
:1044E00000B700CD008301CC008A01920194012124
:1044F00002230224022502260227022A02B300B464
:10450000006F007000818283E200E900EA00B500DC
:10451000B600B700CD008301CC008A01920194015E
:104520002102230224022502260227022A02B300C6
:10453000B4006F007000818283363233313534C667
:104540009740227B060369028B020E022702470274
:00000001FF
